:0400000007EF00F016
:10000800798209ED00F079EF16F00600FACF82F058
:10001800FBCF83F0E9CF84F0EACF85F0E1CF86F01B
:10002800E2CF87F0D9CF88F0DACF89F0F3CF8AF022
:10003800F4CF8BF0F6CF8CF0F7CF8DF0F8CF8EF0B1
:10004800F5CF8FF0F2BAF2A445EF07F00001C451E2
:10005800D8A43ED198EC16F0A2EC16F00001C52BFE
:10006800000E186EA00E196E400E1A6E48EC15F0B0
:1000780001C009F002C00AF0BEEC15F009C015F085
:100088000AC016F00BC017F068EC10F015C03AF073
:1000980016C03BF017C03CF0C00E3D6E7F0E3E6EA2
:1000A800440E3F6ED4EC11F00001C651030DC70E8B
:1000B800F324D96E000EF420DA6E3AC0DEFF3BC09E
:1000C800DEFF3CC0DEFF050E716EFC0E726E02ECA8
:1000D80014F0010E0001C625646E656A000E6522E3
:1000E80041EC16F00001806F816B80C071F081C017
:1000F80072F002EC14F0E70E716EFF0E726E02ECF5
:1001080014F0DC0E716EFF0E726E02EC14F000013A
:10011800C651030DC70EF324D96E000EF420DA6E13
:10012800DECF64F0DECF65F0DDCF66F01DEC16F0B3
:100138000001806F816B80C071F081C072F002ECA9
:1001480014F0F60E716EFF0E726E02EC14F00001E0
:10015800C62B050E0001C519D8A440EF07F0000E04
:100168000001C66F000E0001C56FCDC031F0CEC0D2
:1001780032F0CFC033F0CAC02EF0CBC02FF0CCC0C5
:1001880030F065EC0EF02EC0A7F02FC0A8F030C0FC
:10019800A9F0D0C031F0D1C032F0D2C033F0A7C03E
:1001A8002EF0A8C02FF0A9C030F065EC0EF02EC0DC
:1001B800AAF02FC0ABF030C0ACF0D3C031F0D4C03F
:1001C80032F0D5C033F0AAC02EF0ABC02FF0ACC0CF
:1001D80030F065EC0EF02EC0ADF02FC0AEF030C0A0
:1001E800AFF0C7C031F0C8C032F0C9C033F0ADC0FD
:1001F8002EF0AEC02FF0AFC030F065EC0EF02EC080
:100208003AF02FC03BF030C03CF0000E3D6EA00E1F
:100218003E6E400E3F6ED4EC11F03AC093F03BC0F6
:1002280094F03CC095F0C10E716EFF0E726E02EC38
:1002380014F093C064F094C065F095C066F01DECAE
:1002480016F00001806F816B80C071F081C072F080
:1002580002EC14F0EF0E716EFF0E726E02EC14F0E9
:1002680093C015F094C016F095C017F0000E186EE4
:10027800400E196E400E1A6E37EC13F0D8A008D055
:10028800660E716EFF0E726E02EC14F0000E07D04F
:10029800800E716EFF0E726E02EC14F0010E0001FA
:1002A800BF6F0001BF05D8A40BD0010E0001C46FB9
:1002B8004B0E716EFF0E726E02EC14F040EF07F0F9
:1002C8009A0E716EFE0E726E02EC14F0DCEF06F000
:1002D8000001C405D8A4A6D298EC16F0C8EC16F014
:1002E8000001C52B040E0001C519D8B415D0080E9D
:1002F8000001C519D8B410D00C0E0001C519D8B426
:100308000BD0100E0001C519D8B406D0140E000188
:10031800C519D8A440EF07F0000E186EA00E196E8C
:10032800400E1A6E84EC15F001C009F002C00AF004
:10033800BEEC15F009C015F00AC016F00BC017F096
:1003480068EC10F015C03AF016C03BF017C03CF04E
:10035800C00E3D6E7F0E3E6E440E3F6ED4EC11F023
:100368000001C651030DC70EF324D96E000EF42008
:10037800DA6E3AC0DEFF3BC0DEFF3CC0DEFF0001A4
:10038800C651030DC70EF324D96E000EF420DA6EA1
:10039800DECF24F0DECF25F0DDCF26F02FEC16F0EF
:1003A80024C031F025C032F026C033F0C00E3D6EB7
:1003B8007F0E3E6E440E3F6E000E186EA00E196E34
:1003C800400E1A6E66EC15F001C009F002C00AF082
:1003D800BEEC15F009C015F00AC016F00BC017F0F6
:1003E80068EC10F015C03AF016C03BF017C03CF0AE
:1003F800D4EC11F03AC02EF03BC02FF03CC030F0E6
:1004080065EC0EF02EC09BF02FC09CF030C09DF024
:100418009BC03AF09CC03BF09DC03CF0A40E3D6EE2
:10042800F00E3E6E3E0E3F6ED4EC11F00001C65148
:10043800030DB00EF324D96E000EF420DA6E3AC024
:10044800DEFF3BC0DEFF3CC0DEFF8F0E716EFC0E90
:10045800726E02EC14F0010E0001C625646E656A26
:10046800000E652241EC16F00001806F816B80C0A0
:1004780071F081C072F002EC14F0E70E716EFF0E9D
:10048800726E02EC14F0DC0E716EFF0E726E02ECEE
:1004980014F00001C651030DC70EF324D96E000EE7
:1004A800F420DA6EDECF64F0DECF65F0DDCF66F0E3
:1004B8001DEC16F00001806F816B80C071F081C067
:1004C80072F002EC14F0E50E716EFF0E726E02EC23
:1004D80014F0D10E716EFF0E726E02EC14F0000172
:1004E800C651030DB00EF324D96E000EF420DA6E57
:1004F800DECF64F0DECF65F0DDCF66F01DEC16F0E0
:100508000001806F816B80C071F081C072F002ECD5
:1005180014F0F30E716EFF0E726E02EC14F000010F
:10052800C62B140E0001C519D8A440EF07F0000E21
:100538000001C66F000E0001C56FCDC031F0CEC0FE
:1005480032F0CFC033F0CAC02EF0CBC02FF0CCC0F1
:1005580030F065EC0EF02EC0A7F02FC0A8F030C028
:10056800A9F0D0C031F0D1C032F0D2C033F0A7C06A
:100578002EF0A8C02FF0A9C030F065EC0EF02EC008
:10058800AAF02FC0ABF030C0ACF0D3C031F0D4C06B
:1005980032F0D5C033F0AAC02EF0ABC02FF0ACC0FB
:1005A80030F065EC0EF02EC0ADF02FC0AEF030C0CC
:1005B800AFF0C7C031F0C8C032F0C9C033F0ADC029
:1005C8002EF0AEC02FF0AFC030F065EC0EF02EC0AC
:1005D8003AF02FC03BF030C03CF0000E3D6EA00E4C
:1005E8003E6E400E3F6ED4EC11F03AC09EF03BC018
:1005F8009FF03CC0A0F0C10E716EFF0E726E02EC4F
:1006080014F09EC064F09FC065F0A0C066F01DECB9
:1006180016F00001806F816B80C071F081C072F0AC
:1006280002EC14F0EF0E716EFF0E726E02EC14F015
:100638009EC015F09FC016F0A0C017F0000E186EEF
:10064800600E196E400E1A6E37EC13F0D8A01AD04F
:100658009A0E156E890E166E400E176E9EC018F013
:100668009FC019F0A0C01AF037EC13F0D8A00AD038
:10067800010E0001C06F530E716EFE0E726E02EC19
:1006880014F009D0000E0001C06F2D0E716EFE0E21
:10069800726E02EC14F0B6C031F0B7C032F0B8C0D8
:1006A80033F0B3C02EF0B4C02FF0B5C030F065EC15
:1006B8000EF02EC0A7F02FC0A8F030C0A9F0B9C026
:1006C80031F0BAC032F0BBC033F0A7C02EF0A8C0DA
:1006D8002FF0A9C030F065EC0EF02EC0AAF02FC0A4
:1006E800ABF030C0ACF0BCC031F0BDC032F0BEC021
:1006F80033F0AAC02EF0ABC02FF0ACC030F065ECE0
:100708000EF02EC0ADF02FC0AEF030C0AFF0B0C0CC
:1007180031F0B1C032F0B2C033F0ADC02EF0AEC08F
:100728002FF0AFC030F065EC0EF02EC03AF02FC0BD
:100738003BF030C03CF0000E3D6EA00E3E6E400E09
:100748003F6ED4EC11F03AC0A1F03BC0A2F03CC01F
:10075800A3F0B00E716EFF0E726E02EC14F0A1C021
:1007680064F0A2C065F0A3C066F01DEC16F00001AD
:10077800806F816B80C071F081C072F002EC14F060
:10078800EB0E716EFF0E726E02EC14F0A1C015F044
:10079800A2C016F0A3C017F01F0E186E850E196EB2
:1007A8003E0E1A6E37EC13F0D8A01AD0140E156E40
:1007B800AE0E166E3E0E176EA1C018F0A2C019F04C
:1007C800A3C01AF037EC13F0D8A00AD0010E00012C
:1007D800C16F060E716EFE0E726E02EC14F009D037
:1007E800000E0001C16FDE0E716EFD0E726E02EC1E
:1007F80014F00001C005D8A40ED00001C105D8A48A
:100808000AD0020E0001C46FB90E716EFE0E726E30
:1008180002EC14F031D3780E716EFE0E726E02EC9B
:1008280014F0C6D2020E0001C419D8A4C5D2A2EC95
:1008380016F0C2EC16F00001C52B000E186EA00EC3
:10084800196E400E1A6E84EC15F001C009F002C052
:100858000AF0BEEC15F009C015F00AC016F00BC07E
:1008680017F068EC10F015C03AF016C03BF017C04E
:100878003CF0C00E3D6E7F0E3E6E440E3F6ED4ECD3
:1008880011F00001C651030DC70EF324D96E000EF6
:10089800F420DA6E3AC0DEFF3BC0DEFF3CC0DEFF6C
:1008A8000001C651030DC70EF324D96E000EF420C3
:1008B800DA6EDECF31F0DECF32F0DDCF33F0C00EAE
:1008C8003D6E7F0E3E6E440E3F6E000E186EA00EFB
:1008D800196E400E1A6E66EC15F001C009F002C0E0
:1008E8000AF0BEEC15F009C015F00AC016F00BC0EE
:1008F80017F068EC10F015C03AF016C03BF017C0BE
:100908003CF0D4EC11F03AC024F03BC025F03CC0D8
:1009180026F02FEC16F024C02EF025C02FF026C0AC
:1009280030F065EC0EF02EC09BF02FC09CF030C06C
:100938009DF09BC03AF09CC03BF09DC03CF0A40EDB
:100948003D6EF00E3E6E3E0E3F6ED4EC11F000018F
:10095800C651030DB00EF324D96E000EF420DA6EE2
:100968003AC0DEFF3BC0DEFF3CC0DEFF4B0E716EBF
:10097800FC0E726E02EC14F0010E0001C625646EC6
:10098800656A000E652241EC16F00001806F816BEC
:1009980080C071F081C072F002EC14F0E70E716E45
:1009A800FF0E726E02EC14F0DC0E716EFF0E726EAA
:1009B80002EC14F00001C651030DC70EF324D96EE2
:1009C800000EF420DA6EDECF64F0DECF65F0DDCF06
:1009D80066F01DEC16F00001806F816B80C071F02D
:1009E80081C072F002EC14F0E50E716EFF0E726EAB
:1009F80002EC14F0D10E716EFF0E726E02EC14F060
:100A08000001C651030DB00EF324D96E000EF42078
:100A1800DA6EDECF64F0DECF65F0DDCF66F01DEC78
:100A280016F00001806F816B80C071F081C072F098
:100A380002EC14F0F30E716EFF0E726E02EC14F0FD
:100A48000001C62B050E0001C519D8A415D2000E49
:100A58000001C66F000E0001C56FCDC031F0CEC0D9
:100A680032F0CFC033F0CAC02EF0CBC02FF0CCC0CC
:100A780030F065EC0EF02EC0A7F02FC0A8F030C003
:100A8800A9F0D0C031F0D1C032F0D2C033F0A7C045
:100A98002EF0A8C02FF0A9C030F065EC0EF02EC0E3
:100AA800AAF02FC0ABF030C0ACF0D3C031F0D4C046
:100AB80032F0D5C033F0AAC02EF0ABC02FF0ACC0D6
:100AC80030F065EC0EF02EC0ADF02FC0AEF030C0A7
:100AD800AFF0C7C031F0C8C032F0C9C033F0ADC004
:100AE8002EF0AEC02FF0AFC030F065EC0EF02EC087
:100AF8003AF02FC03BF030C03CF0000E3D6EA00E27
:100B08003E6E400E3F6ED4EC11F03AC096F03BC0FA
:100B180097F03CC098F0C70E1E6E000E1F6E000EB8
:100B2800216E050E206E5CEC11F01EC099F01FC0FE
:100B38009AF0C10E716EFF0E726E02EC14F096C040
:100B480064F097C065F098C066F01DEC16F00001DF
:100B5800806F816B80C071F081C072F002EC14F07C
:100B6800F60E716EFF0E726E02EC14F0990E716E35
:100B7800FF0E726E02EC14F099C00FF09AC010F0DC
:100B8800000E126E030E116E0AEC16F0C70E0F243B
:100B9800D96E000E1020DA6EDECF90F0DECF91F025
:100BA800DDCF92F090C064F091C065F092C066F01D
:100BB8001DEC16F00001806F816B80C071F081C060
:100BC80072F002EC14F0EF0E716EFF0E726E02EC12
:100BD80014F096C015F097C016F098C017F0330EB1
:100BE800186E530E196E400E1A6E37EC13F0D8A01B
:100BF80028D099C00FF09AC010F0000E126E030EA4
:100C0800116E0AEC16F0C70E0F24D96E000E1020D4
:100C1800DA6EDECF15F0DECF16F0DDCF17F0000E5E
:100C2800186E400E196E400E1A6E37EC13F0D8A0ED
:100C380008D0B60E716EFD0E726E02EC14F0010E45
:100C480007D08D0E716EFD0E726E02EC14F0000E60
:100C58000001C26FB6C031F0B7C032F0B8C033F08F
:100C6800B3C02EF0B4C02FF0B5C030F065EC0EF074
:100C78002EC0A7F02FC0A8F030C0A9F0B9C031F03D
:100C8800BAC032F0BBC033F0A7C02EF0A8C02FF016
:100C9800A9C030F065EC0EF02EC0AAF02FC0ABF062
:100CA80030C0ACF0BCC031F0BDC032F0BEC033F0D3
:100CB800AAC02EF0ABC02FF0ACC030F065EC0EF03F
:100CC8002EC0ADF02FC0AEF030C0AFF0B0C031F0E4
:100CD800B1C032F0B2C033F0ADC02EF0AEC02FF0CC
:100CE800AFC030F065EC0EF02EC03AF02FC03BF0EC
:100CF80030C03CF0000E3D6EA00E3E6E400E3F6EC2
:100D0800D4EC11F03AC0A4F03BC0A5F03CC0A6F06A
:100D1800B00E716EFF0E726E02EC14F0A4C064F097
:100D2800A5C065F0A6C066F01DEC16F00001806F46
:100D3800816B80C071F081C072F002EC14F0EB0E90
:100D4800716EFF0E726E02EC14F0A4C015F0A5C00F
:100D580016F0A6C017F0CD0E186E4C0E196E3D0E8B
:100D68001A6E37EC13F0D8A01AD09A0E156E190E19
:100D7800166E3E0E176EA4C018F0A5C019F0A6C0D6
:100D88001AF037EC13F0D8A00AD0010E0001C36F97
:100D9800630E716EFD0E726E02EC14F009D0000E37
:100DA8000001C36F380E716EFD0E726E02EC14F006
:100DB800030E0001C46F60D0030E0001C419D8A44B
:100DC8005BD0D7EC16F0A2EC16F098EC16F0000EFB
:100DD8000001C46F0001C051BFC080F00001816BE9
:100DE80000018027000E81230001C15100018027E6
:100DF800000E81230001C25100018027000E8123CB
:100E08000001C35100018027000E8123050E000157
:100E1800801900018111D8A418D02F0E716EFF0E11
:100E2800726E02EC14F0120E716EFF0E726E02EC0E
:100E380014F0D30E716EFC0E726E02EC14F0818801
:100E4800819A819CA2EC15F017D0F50E716EFE0EFA
:100E5800726E02EC14F0120E716EFF0E726E02ECDE
:100E680014F0D30E716EFC0E726E02EC14F08198C1
:100E7800819A818C5FEC16F0DB0ED66E0B0ED76E66
:100E8800F2948FC0F5FF8EC0F8FF8DC0F7FF8CC0BD
:100E9800F6FF8BC0F4FF8AC0F3FF89C0DAFF88C071
:100EA800D9FF87C0E2FF86C0E1FF85C0EAFF84C0A2
:100EB800E9FF83C0FBFF82C0FAFF79921100440E5C
:100EC800506E000E516E98D3250E6318D8B409D011
:100ED80040C0D9FF41C0DAFF63C0DFFF404A412A62
:100EE8008BD3000E536E000E526E02D0538417D06F
:100EF80042C0F6FF43C0F7FF424A432AF86A080097
:100F0800F5CF63F06350000AD8B483D3640AD8B429
:100F180006D0020AD8B4EAD70F0AD8A46DD3070EB0
:100F28005314D8B4C5D2000E556E060E546E50C078
:100F3800D9FF51C0DAFFDECF60F0DECF61F0DDCF40
:100F480062F0030E5026000E512262AE10D060C02F
:100F580024F061C025F062C026F02FEC16F024C002
:100F680060F025C061F026C062F0030E5212000E38
:100F78005B6E000E5A6E605061106210D8B483D058
:100F8800820E476EFF0E486E60C049F061C04AF09D
:100F980062C04BF063C04CF0100E05D0D8904C32B4
:100FA8004B324A324932E82EF9D7495047245A6E13
:100FB800000E48205B6E5A06D8A05B065AC00FF098
:100FC8005BC010F0000E126E030E116E0AEC16F0E4
:100FD8000FC05AF010C05BF05AC007F05BC008F0B1
:100FE800000E0A6E0A0E096E7FEC13F007C05AF065
:100FF80008C05BF05BAE03D05A06D8A05B065A5017
:10100800000814EC0BF024C05CF025C05DF026C08D
:101018005EF05CC015F05DC016F05EC017F060C0F1
:1010280018F061C019F062C01AF068EC10F015C031
:101038005CF016C05DF017C05EF05CC015F05DC0D6
:1010480016F05EC017F0000E186E800E196E3F0E77
:101058001A6E37EC13F0D8B004D05A06D8A05B0645
:1010680012D05CC015F05DC016F05EC017F0000E1F
:10107800186E200E196E410E1A6E37EC13F0D8A0B8
:1010880002D05A4A5B2A55BE06D055501BE10D0EB8
:10109800545CD8B017D060C02EF061C02FF062C089
:1010A80030F0545030EC0DF024C031F025C032F04F
:1010B80026C033F065EC0EF02EC060F02FC061F052
:1010C80030C062F05BBE06D05B501EE10A0E5A5C6F
:1010D800D8B01AD0605061106210D8B451D060C036
:1010E80024F061C025F062C026F0E2EC10F0245034
:1010F800251026102710D8B45BBE42D05B5004E1FF
:10110800020E5A5CD8A03CD05CC015F05DC016F049
:101118005EC017F0700E186E890E196E400E1A6EAA
:1011280037EC13F0D8B002D0F70E01D0F80E5A26DB
:10113800FF0E5B225A5014EC0BF024C05CF025C063
:101148005DF026C05EF060C001F061C002F062C0D0
:1011580003F05CC004F05DC005F05EC006F03BEC37
:101168000FF001C056F002C057F003C058F004C099
:1011780059F0000E606E000E616E000E626E32D085
:1011880060C024F061C025F062C026F0E2EC10F0E7
:1011980024C056F025C057F026C058F027C059F093
:1011A80060C03AF061C03BF062C03CF056C009F044
:1011B80057C00AF058C00BF059C00CF0D4EC14F02A
:1011C80009C03DF00AC03EF00BC03FF028EC15F016
:1011D8003AC060F03BC061F03CC062F0000E5B6E4C
:1011E800000E5A6E010E636E0A0E6318D8B41BD037
:1011F8006350040D8F0EF324F66EFB0EF420F76E89
:10120800F86A000EF8220900F550565C0900F550FE
:1012180057580900F55058580900F5505958D8A0A2
:1012280002D0632AE1D7030E5214476E000E5314FE
:10123800486E47504810D8B454D040C0D9FF41C078
:10124800DAFF2D0E4CD0404A412A4BD056C001F04F
:1012580057C002F058C003F059C004F06350040DA1
:101268008F0EF324F66EFB0EF420F76EF86A000E6C
:10127800F8220900F5CF05F00900F5CF06F00900BE
:10128800F5CF07F00A00F5CF08F0C1EC13F001C064
:101298005CF002C05DF003C05EF004C05FF05CC0AB
:1012A8000EF05DC00FF05EC010F05FC011F00A0EC6
:1012B800126E000E136E000E146E000E156E73EC97
:1012C80014F00EC05CF00FC05DF010C05EF011C0ED
:1012D8005FF05C50300F40C0D9FF41C0DAFFDF6ECD
:1012E800B2D763066328D8B40CD0B0D740C0D9FFB2
:1012F80041C0DAFF300EDF6E404A412A5A06D8A0B4
:101308005B065BBE05D05B50F1E15A04D8B0EED75E
:1013180055BE09D0555004E1090E545CD8A003D03D
:10132800080E636E02D054C063F06350545E000E22
:1013380063BEFF0E555A6350D8B408D040C0D9FFD9
:1013480041C0DAFF2E0EDF6E404A412A635014EC8A
:101358000BF024C04DF025C04EF026C04FF060C001
:1013680018F061C019F062C01AF04DC015F04EC0F7
:1013780016F04FC017F068EC10F015C024F016C036
:1013880025F017C026F0E2EC10F024C056F025C076
:1013980057F026C058F027C059F075D056C001F054
:1013A80057C002F058C003F059C004F06350040D50
:1013B8008F0EF324F66EFB0EF420F76EF86A000E1B
:1013C800F8220900F5CF05F00900F5CF06F009006D
:1013D800F5CF07F00A00F5CF08F0C1EC13F001C013
:1013E8005CF002C05DF003C05EF004C05FF05CC05A
:1013F8000EF05DC00FF05EC010F05FC011F00A0E75
:10140800126E000E136E000E146E000E156E73EC45
:1014180014F00EC05CF00FC05DF010C05EF011C09B
:101428005FF05C50300F40C0D9FF41C0DAFFDF6E7B
:10143800404A412A56C00EF057C00FF058C010F06D
:1014480059C011F06350040D8F0EF324F66EFB0E95
:10145800F420F76EF86A000EF8220900F5CF12F0B2
:101468000900F5CF13F00900F5CF14F00A00F5CF05
:1014780015F073EC14F00EC056F00FC057F010C002
:1014880058F011C059F063066328D8B40CD086D739
:1014980040C0D9FF41C0DAFF300EDF6E404A412A12
:1014A8005406D8A0550654505510D8B4A5D0F0D736
:1014B80050C0D9FF51C0DAFFDECF56F0DDCF57F06C
:1014C800000E57BEFF0E586E596E020E5026000EC3
:1014D800512259AE0AD0030E5212591E581E571ED9
:1014E800566C000E572258225922010E636E0A0EBE
:1014F8006318D8B41BD06350040D8F0EF324F66E16
:10150800FB0EF420F76EF86A000EF8220900F55079
:10151800565C0900F55057580900F550585809000D
:10152800F5505958D8A002D0632AE1D7030E5214B7
:10153800476E000E5314486E47504810D8B408D070
:1015480040C0D9FF41C0DAFF2D0EDF6E404A412A64
:101558006350546E556A54BE550646D054C047F081
:1015680055C048F0D89047364836D8904736483660
:101578008F0E4724F66EFB0E4820F76EF86A000EB1
:10158800F8220900F5CF05F00900F5CF06F00900AB
:10159800F5CF07F00A00F5CF08F056C001F057C0A4
:1015A80002F058C003F059C004F0C1EC13F001C0B8
:1015B8000EF002C00FF003C010F004C011F00A0EC4
:1015C800126E000E136E000E146E000E156E73EC84
:1015D80014F00E50300F636E40C0D9FF41C0DAFFDF
:1015E80063C0DFFF404A412A5406D8A05506542854
:1015F800B5E15528D8A4B2D742C0F6FF43C0F7FFDB
:10160800424A432AF86A0800F5CF63F06350D8A429
:101618005BD440C0D9FF41C0DAFF000EDF6E120074
:101628002A6E2AAE0DD12A6C2A50800A120FD8A031
:101638009AD0000E126E030E116E000E0A6E0A0E7C
:10164800096E000E046E640E036E2A50016E026A63
:1016580001BE02063BEC14F001C007F002C008F01E
:101668007FEC13F0090E07240F6E000E0820106E91
:101678000AEC16F0DE0E0F24F66EFB0E1020F76E45
:10168800F86A000EF8220900F5CF18F00900F5CF26
:1016980019F00A00F5CF1AF0000E0A6E640E096EF2
:1016A8002A50076E086A07BE08067FEC13F0120E70
:1016B80007240F6E000E0820106E000E126E030E27
:1016C800116E0AEC16F0DE0E0F24F66EFB0E1020DB
:1016D800F76EF86A000EF8220900F5CF15F0090038
:1016E800F5CF16F00A00F5CF17F068EC10F015C02A
:1016F80027F016C028F017C029F027C015F028C019
:1017080016F029C017F0000E126E030E116E000EAF
:10171800046E0A0E036E2A50016E026A01BE0206AA
:101728003BEC14F001C00FF002C010F00AEC16F008
:10173800DE0E0F24F66EFB0E1020F76EF86A000E10
:10174800F8220900F5CF18F00900F5CF19F00A00C2
:10175800F5CF1AF068EC10F015C024F016C025F08B
:1017680017C026F012002A50800A750FD8A053D04F
:10177800000E0A6E0A0E096E2A50076E086A07BE26
:1017880008067FEC13F0090E07240F6E000E0820E0
:10179800106E000E126E030E116E0AEC16F0DE0EBD
:1017A8000F24F66EFB0E1020F76EF86A000EF82272
:1017B8000900F5CF15F00900F5CF16F00A00F5CFAE
:1017C80017F0000E126E030E116E000E046E0A0E54
:1017D800036E2A50016E026A01BE02063BEC14F049
:1017E80001C00FF002C010F00AEC16F0DE0E0F2454
:1017F800F66EFB0E1020F76EF86A000EF82209004C
:10180800F5CF18F00900F5CF19F00A00F5CF1AF056
:1018180068EC10F0A1D72A50030DDE0EF324F66E03
:10182800FB0EF420F76EF86A000EF8220900F5CFD7
:1018380024F00900F5CF25F00A00F5CF26F01200B4
:101848002A50800A120FD8A09AD0000E126E030EEA
:10185800116E000E0A6E0A0E096E000E046E640EFA
:10186800036E2A50016E026A01BE02063BEC14F0B8
:1018780001C007F002C008F07FEC13F0090E07243E
:101888000F6E000E0820106E0AEC16F0B70E0F242B
:10189800F66EFB0E1020F76EF86A000EF8220900AB
:1018A800F5CF18F00900F5CF19F00A00F5CF1AF0B6
:1018B800000E0A6E640E096E2A50076E086A07BE8B
:1018C80008067FEC13F0120E07240F6E000E082096
:1018D800106E000E126E030E116E0AEC16F0B70EA3
:1018E8000F24F66EFB0E1020F76EF86A000EF82231
:1018F8000900F5CF15F00900F5CF16F00A00F5CF6D
:1019080017F068EC10F015C027F016C028F017C0C3
:1019180029F027C015F028C016F029C017F0000ECE
:10192800126E030E116E000E046E0A0E036E2A501C
:10193800016E026A01BE02063BEC14F001C00FF012
:1019480002C010F00AEC16F0B70E0F24F66EFB0E6C
:101958001020F76EF86A000EF8220900F5CF18F08B
:101968000900F5CF19F00A00F5CF1AF068EC10F06D
:1019780015C024F016C025F017C026F012002A5012
:10198800800A750FD8A053D0000E0A6E0A0E096E91
:101998002A50076E086A07BE08067FEC13F0090E86
:1019A80007240F6E000E0820106E000E126E030E34
:1019B800116E0AEC16F0B70E0F24F66EFB0E10200F
:1019C800F76EF86A000EF8220900F5CF15F0090045
:1019D800F5CF16F00A00F5CF17F0000E126E030EC1
:1019E800116E000E046E0A0E036E2A50016E026A12
:1019F80001BE02063BEC14F001C00FF002C010F06B
:101A08000AEC16F0B70E0F24F66EFB0E1020F76ED8
:101A1800F86A000EF8220900F5CF18F00900F5CF92
:101A280019F00A00F5CF1AF068EC10F0A1D72A5087
:101A3800030DB70EF324F66EFB0EF420F76EF86A6A
:101A4800000EF8220900F5CF24F00900F5CF25F0A3
:101A58000A00F5CF26F012002D6E6D0E2D64A8D069
:101A6800000E126E030E116E000E0A6E0A0E096E3B
:101A7800000E046E640E036E2DC001F0026A3BEC8A
:101A880014F001C007F002C008F07FEC13F0090E53
:101A980007240F6E000E0820106E0AEC16F0DE0EFA
:101AA8000F24F66EFB0E1020F76EF86A000EF8226F
:101AB8000900F5CF18F00900F5CF19F00A00F5CFA5
:101AC8001AF0000E0A6E640E096E2DC007F0086A3F
:101AD8007FEC13F0120E07240F6E000E0820106E14
:101AE800000E126E030E116E0AEC16F0DE0E0F24B5
:101AF800F66EFB0E1020F76EF86A000EF822090049
:101B0800F5CF15F00900F5CF16F00A00F5CF17F05C
:101B180068EC10F015C02AF016C02BF017C02CF096
:101B2800000E126E030E116E000E046E0A0E036E86
:101B38002DC001F0026A3BEC14F001C00FF002C0A6
:101B480010F00AEC16F0DE0E0F24F66EFB0E1020D5
:101B5800F76EF86A000EF8220900F5CF18F00900B0
:101B6800F5CF19F00A00F5CF1AF02AC015F02BC0EE
:101B780016F02CC017F068EC10F015C027F016C04E
:101B880028F017C029F027C015F028C016F029C082
:101B980017F0000E186E000E196E3F0E1A6E68ECE4
:101BA80010F015C024F016C025F017C026F012005A
:101BB8000A0E2D6463D0000E126E030E116E000E15
:101BC800046E0A0E036E2DC001F0026A3BEC14F09D
:101BD80001C00FF002C010F00AEC16F0DE0E0F2460
:101BE800F66EFB0E1020F76EF86A000EF822090058
:101BF800F5CF18F00900F5CF19F00A00F5CF1AF063
:101C0800000E0A6E0A0E096E2DC007F0086A7FECF6
:101C180013F0090E07240F6E000E0820106E000E38
:101C2800126E030E116E0AEC16F0DE0E0F24F66E1D
:101C3800FB0E1020F76EF86A000EF8220900F5CFA7
:101C480015F00900F5CF16F00A00F5CF17F068EC8B
:101C580010F015C02AF016C02BF017C02CF02AC0BF
:101C680015F02BC016F02CC017F0000E186E000EE1
:101C7800196E3F0E1A6E68EC10F093D72D50030DB5
:101C8800DE0EF324F66EFB0EF420F76EF86A000EF3
:101C9800F8220900F5CF15F00900F5CF16F00A0073
:101CA800F5CF17F0000E186E000E196E3F0E1A6E63
:101CB80068EC10F015C024F016C025F017C026F007
:101CC800120030C034F0356A366A2F34343601E3F6
:101CD80035803450396E33C034F0356A366A323460
:101CE800343601E335803450386E3950D8B40BD0CF
:101CF8003850395CD8B00ED0395000083824346ECA
:101D0800180E346407D031C02EF032C02FF033C023
:101D180030F012003850D8B40BD03950385CD8B0F5
:101D28000ED0385000083924346E180E346407D0A9
:101D38002EC02EF02FC02FF030C030F01200060E4B
:101D4800376E30BE378E33BE378C2F8EFF0E2E1671
:101D5800FF0E2F16000E3016328EFF0E3116FF0EB4
:101D68003216000E33163850395CD8B01BD0D890D4
:101D7800313632363336380639503818D8B40DD0A3
:101D8800370637C034F0070E3416D8B406D0EFD76C
:101D9800D89030322F322E32392A38503918D8B4E8
:101DA8001FD0F6D73950385CD8B01AD0D8902E3614
:101DB8002F363036390639503818D8B40DD0370692
:101DC80037C034F0070E3416D8B406D0EFD7D89001
:101DD800333232323132382A38503918D8A4F7D74A
:101DE80037AE0CD0FF0E2E1AFF0E2F1AFF0E301A28
:101DF800010E2E26000E2F22000E302237AC0CD0FA
:101E0800FF0E311AFF0E321AFF0E331A010E312659
:101E1800000E3222000E3322000E376E2E5031266D
:101E28002F5032223050332233AE0ED0FF0E311AEB
:101E3800FF0E321AFF0E331A010E3126000E32221F
:101E4800000E3322010E376E31C001F032C002F0AD
:101E580033C003F039C004F037C005F047EC12F086
:101E680001C02EF002C02FF003C030F0120003C0F2
:101E780007F0086A096A0234073601E30880075048
:101E88000F6E0F50D8A409D0000E016E000E026E1E
:101E9800000E036E000E046E120006C007F0086AFA
:101EA800096A0534073601E3088007500E6E0E50A4
:101EB800D8A409D0000E016E000E026E000E036E4B
:101EC800000E046E1200028EFF0E0116FF0E02169F
:101ED800000E0316058EFF0E0416FF0E0516000EE3
:101EE8000616000E0A6E000E0B6E000E0C6E000E2B
:101EF8000D6E7F0E0F5E0E50980F0F5E180E0E6E51
:101F0800D8900A360B360C360D360450015C055055
:101F1800025806500358D8A007D00450015E055057
:101F2800025A0650035A0A80D89001360236033600
:101F38000E2EE6D70FAE16D00F50800A970FD8B0E6
:101F480009D0000E016E000E026E000E036E000E28
:101F5800046E1200D8900D320C320B320A320F3E4A
:101F6800F9D715D0170E0F640FD0000E016E000EB2
:101F7800026E000E036E000E046E1200D8900A3630
:101F88000B360C360D360F060F50D8A4F7D70AC0FB
:101F980001F00BC002F00CC003F00DC004F01200F9
:101FA800033404340C6E0C50D8A409D0000E016E12
:101FB800000E026E000E036E000E046E1200063450
:101FC80007340B6E0B50D8A409D0000E016E000E1A
:101FD800026E000E036E000E046E1200038EFF0EDA
:101FE8000116FF0E0216FF0E0316000E0416068ECB
:101FF800FF0E0416FF0E0516FF0E0616000E071636
:10200800000E076E000E086E000E096E000E0A6EB6
:102018007F0E0C5E0B50A00F0C5E200E0B6ED8903E
:102028000736083609360A360450015C055002584E
:102038000650035807500458D8A009D00450015E30
:102048000550025A0650035A0750045A0780D89080
:1020580001360236033604360B2EE1D70CAE16D005
:102068000C50800A9F0FD8B009D0000E016E000EE8
:10207800026E000E036E000E046E1200D8900A3233
:102088000932083207320C3EF9D715D01F0E0C64FE
:102098000FD0000E016E000E026E000E036E000ED1
:1020A800046E1200D8900736083609360A360C0630
:1020B8000C50D8A4F7D707C001F008C002F009C037
:1020C80003F00AC004F0120017C01BF01C6A1D6A56
:1020D80016341B3601E31C801B501E6E1E50D8A4FC
:1020E80007D0000E156E000E166E000E176E120049
:1020F8001AC01BF01C6A1D6A19341B3601E31C80C8
:102108001B50236E2350D8A407D0000E156E000E66
:10211800166E000E176E120023507B0F1E2617C076
:1021280023F01A50231A800E2316168E198EFF0ECE
:102138001816FF0E1916000E1A16000E1F6E000E46
:10214800206E000E216E070E226E15A006D01850C4
:102158001F26195020221A502122D89017321632E1
:102168001532D890183619361A36222EEED7090E9F
:10217800226E15A006D018501F26195020221A507A
:102188002122D890173216321532D89021322032B7
:102198001F32222EEED71FC001F020C002F021C04E
:1021A80003F01EC004F023C005F047EC12F001C094
:1021B80015F002C016F003C017F0120026C028F070
:1021C800296A2A6A2534283601E329802850326E84
:1021D8003250D8A409D0000E246E000E256E000ED1
:1021E800266E000E276E1200170E286E24C029F0E6
:1021F80025C02AF026C02BF028282C6E04D0D890B1
:102208002B322A3229322C2EFAD729502D6E258EC0
:10221800FF0E2416FF0E2516000E261624502E6ECD
:1022280025502F6E2650306E316A8E0E325E32AED9
:1022380016D03250800A8F0FD8B009D0000E246E05
:10224800000E256E000E266E000E276E1200D89026
:10225800313230322F322E32323EF9D715D0170EA6
:1022680032640FD0000E246E000E256E000E266E0E
:10227800000E276E1200D8902E362F3630363136A3
:1022880032063250D8A4F7D72D50D8B408D0311E12
:10229800301E2F1E2E6C000E2F22302231222EC00F
:1022A80024F02FC025F030C026F031C027F01200EE
:1022B800000E276E000E266E000E296E000E286E88
:1022C800000E236E000E246E000E256E28C00FF03F
:1022D80029C010F0000E126E030E116E0AEC16F0F3
:1022E8000F501E24D96E10501F20DA6EDECF23F057
:1022F800DECF24F0DDCF25F028C026F029C027F056
:10230800000E296E000E286E3CD028C00FF029C0A0
:1023180010F0000E126E030E116E0AEC16F00F503C
:102328001E24D96E10501F20DA6EDECF15F0DECFD6
:1023380016F0DDCF17F023C018F024C019F025C01F
:102348001AF037EC13F0D8B01AD028C026F029C0FC
:1023580027F028C00FF029C010F0000E126E030EEF
:10236800116E0AEC16F00F501E24D96E10501F2063
:10237800DA6EDECF23F0DECF24F0DDCF25F0284A59
:10238800292A2050285C2950800A226E2150800A70
:102398002258D8A0BAD726C01EF027C01FF01200B6
:1023A8003CC040F0416A426A3B34403601E3418018
:1023B8004050476E4750D8A407D0000E3A6E000E22
:1023C8003B6E000E3C6E12003FC040F0416A426A0C
:1023D8003E34403601E341804050486E4850D8A40E
:1023E80007D0000E3A6E000E3B6E000E3C6E1200D7
:1023F800000E446E000E456E000E466E4850890F62
:10240800475E3CC048F03F50481A800E48163B8E45
:10241800FF0E3A16FF0E3B16000E3C163E8EFF0EC0
:102428003D16FF0E3E16000E3F16180E436ED8904E
:102438004436453646363D503A5C3E503B583F5050
:102448003C58D8A007D03D503A5E3E503B5A3F50CA
:102458003C5A4480D8903A363B363C36432EE7D730
:1024680044C001F045C002F046C003F047C004F084
:1024780048C005F047EC12F001C03AF002C03BF04A
:1024880003C03CF012000450D8B405D0015002102B
:102498000310D8A40CD0000E016E000E026E000EC0
:1024A800036E1200042AD890033202320132000E61
:1024B8000114066E000E0214076EFE0E0314086E59
:1024C800065007100810D8B40CD0ECD7042A010E17
:1024D8000126000E0222000E0322D8900332023297
:1024E8000132000E0114066E000E0214076EFF0E74
:1024F8000314086E065007100810D8B406D0E6D7A3
:102508000406D89001360236033602BE03D0020E06
:102518000460F6D704A0029ED89004320450031237
:102528000550D8A4038E01C001F002C002F003C018
:1025380003F01200020E01010F6F450E01010E6F2C
:10254800A90EE82EFED70E2FFCD70F2FFAD700D0F2
:10255800DAEC15F0F5EC15F0ACEC16F051EC16F0E1
:10256800CEEC16F00A0E0101066FFD0E0101076F91
:10257800EFEC12F0D60E0101066FFC0E0101076F99
:10258800EFEC12F0D5EC16F081B4FED7070E01017E
:102598000E6F7D0EE82EFED70E2FFCD781B4F4D730
:1025A80081A4FED76DEC16F08198819C818AD70EA4
:1025B8000101066FFE0E0101076FEFEC12F0000E2D
:1025C8000001C46F000E0001C56F000E0001C66F48
:1025D800D3EC16F0D9D7000E01010D6F000E0C6F69
:1025E80006C100F107C101F1A6EC14F000C10AF11F
:1025F80001C10BF1000E01010D6F000E0C6F22D00E
:1026080001010C51010106250101086F01010D515D
:10261800010107210101096F08C1F6FF09C1F7FF90
:10262800000EF86E0F0EF76403D00800F55005D0C1
:10263800F6CFE9FFF7CFEAFFEF50B5EC16F001014E
:102648000C4B0D2B01010A5101010C5D01010D51CB
:10265800800A0101086F01010B51800A0101085924
:10266800D8B01200CDD717AE16D015C01BF016C0C3
:102678001CF017C01DF01B1E1C1E1D1E1B2A000E61
:102688001C221D22000E1B24156E000E1C20166E27
:10269800800E1D20176E1AAE16D018C01BF019C078
:1026A8001CF01AC01DF01B1E1C1E1D1E1B2A000E2E
:1026B8001C221D22000E1B24186E000E1C20196EF1
:1026C800800E1D201A6E000E151A000E161A800EA6
:1026D800171A000E181A000E191A800E1A1A185016
:1026E800155C195016581A501758D8B002D0D890FF
:1026F8001200D8801200000E0C6E0AAE06D0096CCB
:102708000A1ED8B00A2A010E0C6E08AE06D0076C55
:10271800081ED8B0082A010E0C1A000E0E6E000E04
:102728000D6E09500A10D8B41CD0010E0B6E04D0DF
:10273800D89009360A360B2A0AAEFAD7D8900D3641
:102748000E360950075C0A500858D8A005D0095021
:10275800075E0A50085A0D80D8900A3209320B2EAB
:10276800EDD70C50D8B404D00D6C0E1ED8B00E2A7C
:102778000DC007F00EC008F01200000E096E000E22
:102788000A6E000E0B6E000E0C6E05500610071038
:102798000810D8B42AD0010E0D6E06D0D890053690
:1027A8000636073608360D2A08AEF8D7D890093607
:1027B8000A360B360C360550015C06500258075095
:1027C800035808500458D8A009D00550015E065097
:1027D800025A0750035A0850045A0980D890083200
:1027E8000732063205320D2EE1D709C001F00AC0C2
:1027F80002F00BC003F00CC004F01200000E786E5B
:10280800000E776E71C001F072C002F002EC15F094
:1028180001C075F002C076F0000E786E000E776E7B
:102828001BD077507124736E78507220746E73C009
:10283800F6FF74C0F7FF000EF86E0F0EF76403D0B2
:102848000800F55005D0F6CFE9FFF7CFEAFFEF50C3
:10285800BCEC16F0774A782A7550775C7850800A75
:10286800736E7650800A7358D8B01200DAD7000E0B
:10287800066E02AE06D0016C021ED8B0022A010E06
:10288800066E04AE04D0036C041ED8B0042A0350AC
:102898000410D8B418D0010E056E04D0D8900336B1
:1028A8000436052A04AEFAD70350015C04500258D6
:1028B800D8A004D00350015E0450025AD8900432C4
:1028C8000332052EF1D70650D8B404D0016C021E8D
:1028D800D8B0022A01C001F002C002F01200125062
:1028E800131014101510D8B424D0010E166E06D08B
:1028F800D8901236133614361536162A15AEF8D770
:1029080012500E5C13500F5814501058155011588F
:10291800D8A008D012500E5E13500F5A1450105AF7
:102928001550115AD8901532143213321232162E0D
:10293800E7D70EC00EF00FC00FF010C010F011C096
:1029480011F01200000E0101056F000E046F03D094
:102958000101044B052B010104510101002501016E
:10296800026F01010551010101210101036F02C13B
:10297800F6FF03C1F7FF000EF86E0F0EF76403D0E1
:102988000800F55005D0F6CFE9FFF7CFEAFFEF5082
:102998000009D8A4DDD704C100F105C101F1120076
:1029A8008E0E116E06D0D8900C320B320A320932D4
:1029B800112A000E09140D6E000E0A140E6E000E78
:1029C8000B140F6EFF0E0C14106E0D500E100F101E
:1029D8001010D8A4E8D709C001F00AC002F00BC053
:1029E80003F011C004F0000E056E47EC12F001C0B0
:1029F80009F002C00AF003C00BF01200000E066EC8
:102A0800000E056E02D0054A062A05500124036E01
:102A180006500220046E03C0F6FF04C0F7FF000E44
:102A2800F86E0F0EF76403D00800F55005D0F6CF06
:102A3800E9FFF7CFEAFFEF500009D8A4E4D705C0B3
:102A480001F006C002F012003D503E103F10D8B40D
:102A580006D0000E3D1A000E3E1A800E3F1A3AC0EC
:102A68002EF03BC02FF03CC030F03DC031F03EC0EE
:102A780032F03FC033F065EC0EF02EC03AF02FC0B4
:102A88003BF030C03CF01200C250C30B0809C26EC4
:102A9800C280000E066E000E056EC2829EACFED786
:102AA800C350C4CF03F0046A03C004F0036A0310E0
:102AB800056E0450066E9E9CC29005C001F006C0CB
:102AC80002F01200C250C30B0409C26EC280000E8D
:102AD800066E000E056EC2829EACFED7C350C4CFF0
:102AE80003F0046A03C004F0036A0310056E04507F
:102AF800066E9E9CC29005C001F006C002F012004E
:102B0800C294C296C298C29AC280000E066E000E87
:102B1800056EC2829EACFED7C350C4CF03F0046AD0
:102B280003C004F0036A0310056E0450066E9E9CF1
:102B3800C29005C001F006C002F01200000E026E3D
:102B4800000E026E020E026401D012008186110E80
:102B5800016E3A0EE82EFED7012EFCD700D08196E2
:102B6800110E016E3A0EE82EFED7012EFCD700D0CA
:102B7800022AE8D7000E0C6E0AAE06D0096C0A1EAF
:102B8800D8B00A2A010E0C6E09C001F00AC002F082
:102B9800036A8E0E046E0CC005F047EC12F001C0FB
:102BA80009F002C00AF003C00BF01200C292C290F2
:102BB800C19AC198C150F00B0C09C16EC08EC050AB
:102BC800C70B0809C06EC050F80B0409C06E040E8C
:102BD8000101006F3D0EE82EFED7002FFCD700D074
:102BE8001200948E948CAC9EAC9CAC8AAC98AC963B
:102BF800AC84AB8EAB9CAB9AAB88AB96B886190EFF
:102C0800AF6EF28EF28C9D8A9E9A12000F501102BE
:102C1800F3CF13F0F4CF14F00F501202F350142630
:102C280010501102F350142613C00FF014C010F006
:102C38001200670E406E000E416EFC0E426EFF0ED3
:102C4800436E64C044F065C045F066C046F063EC6E
:102C580007F0670E1200245025102610D8B406D0AD
:102C6800000E241A000E251A800E261A24C024F0FD
:102C780025C025F026C026F01200660E406E000E14
:102C8800416EF90E426EFF0E436E64C044F065C09B
:102C980045F063EC07F0660E1200D59CD59AD588EE
:102CA800D596D550F80B0109D56EDB0ED66E0B0EF6
:102CB800D76ED59E12008186020E026E450E016EF9
:102CC800AA0EE82EFED7012EFCD7022EFAD781963F
:102CD80012008186410E0101006FEE0EE82EFED72C
:102CE800002FFCD700F08196120000EEB0F0260EFF
:102CF800EE6AE806FDE17990799200019EEF12F004
:102D08008182070E0101006F7D0EE82EFED7002F8D
:102D1800FCD712008180070E0101006F7D0EE82E9E
:102D2800FED7002FFCD712008182070E016E7D0EA0
:102D3800E82EFED7012EFCD700F012008180070E86
:102D4800016E7D0EE82EFED7012EFCD700F0120092
:102D5800040E936E000E816E8EEC16F084EC16F065
:102D680012000101006F00C1ADFFACB21200FDD727
:102D7800016E01C0ADFFACB21200FDD781A002D038
:102D8800819212008182120081A202D081901200E9
:102D980081801200F28EF28CF28AF2941200D58EA3
:0A2DA8001200D59E1200D59E120005
:10FB8E0000010000000A00000064000000E803000D
:10FB9E000010270000A086010040420F00809698BA
:10FBAE000000E1F50500CA9A3B00803F00204100AD
:10FBBE00C842007A44401C4650C3472474499718E3
:10FBCE004BBCBE4C6B6E4E03155079AD60F3497154
:10FBDE0000803FCDCC3DD7233C12833AB7D138C6F7
:10FBEE002737388635C0D633CC2B32708930E7DBD9
:10FBFE002EE53C1E42A20D0A436172726567616D6D
:10FC0E00656E746F3A204465736162696C697461E4
:10FC1E00646F207C20446573636172726567616DE9
:10FC2E00656E746F3A204465736162696C697461C4
:10FC3E00646F207C2054657374653A20000A43611A
:10FC4E0072726567616D656E746F3A20446573619B
:10FC5E0062696C697461646F207C204465736361B2
:10FC6E0072726567616D656E746F3A204861626984
:10FC7E006C697461646F207C2054657374653A20DE
:10FC8E00000A436172726567616D656E746F3A202A
:10FC9E00486162696C697461646F207C204465738D
:10FCAE00636172726567616D656E746F3A2044654B
:10FCBE00736162696C697461646F207C2054657332
:10FCCE0074653A20000A0A0A0A2A2A2A2050726506
:10FCDE007373696F6E65206F20626F74616F207031
:10FCEE0061726120696E6963696172206F7320743D
:10FCFE00657374657321202A2A2A0A000A0A0A0AE1
:10FD0E002A2A2A204A696761206465207465737403
:10FD1E006573206461206261746572696120455665
:10FD2E004F2E2E2E202A2A2A0A005465737465201F
:10FD3E00646520436F7272656E7465206E6F204429
:10FD4E006573636172726567616D656E746F3A207B
:10FD5E004E4F4B0A00546573746520646520436FE3
:10FD6E007272656E7465206E6F2044657363617286
:10FD7E00726567616D656E746F3A204F4B0A005461
:10FD8E00657374652064652054656E73616F206EB3
:10FD9E006F20446573636172726567616D656E7421
:10FDAE006F3A204E4F4B0A0054657374652064659C
:10FDBE002054656E73616F206E6F204465736361AE
:10FDCE0072726567616D656E746F3A204F4B0A00F3
:10FDDE00546573746520646520436F7272656E742A
:10FDEE0065206E6F20436172726567616D656E741A
:10FDFE006F3A204E4F4B0A0054657374652064654C
:10FE0E0020436F7272656E7465206E6F204361724F
:10FE1E00726567616D656E746F3A204F4B0A0054C0
:10FE2E00657374652064652054656E73616F206E12
:10FE3E006F20436172726567616D656E746F3A20F3
:10FE4E004E4F4B0A005465737465206465205465EB
:10FE5E006E73616F206E6F20436172726567616DA4
:10FE6E00656E746F3A204F4B0A000A4465736361E6
:10FE7E0072726567616D656E746F206E616F20487A
:10FE8E006162696C697461646F210A000A43617270
:10FE9E00726567616D656E746F206E616F2048616B
:10FEAE0062696C697461646F210A000A4465736348
:10FEBE006172726567616D656E746F20486162690B
:10FECE006C697461646F210A000A2A2A2A20496E1D
:10FEDE00696369616E646F207465737465732E2E29
:10FEEE002E202A2A2A0A000A2A2A2A20424154456A
:10FEFE0052494120524550524F5641444121202AE9
:10FF0E002A2A0A000A2A2A2A205465737465732045
:10FF1E0066696E616C697A61646F73202A2A2A0A97
:10FF2E00000A2A2A2A204241544552494120415072
:10FF3E00524F5641444121202A2A2A0A000A43617F
:10FF4E0072726567616D656E746F20486162696C6F
:10FF5E00697461646F210A00546573746520646569
:10FF6E0020506F6C617269646164653A204E4F4B2C
:10FF7E000A00546573746520646520506F6C61725D
:10FF8E0069646164653A204F4B0A000A4D656E6FD5
:10FF9E00722074656E73616F206D65646964613A79
:10FFAE002000436F7272656E7465204D65646961E1
:10FFBE003A20000A54656E73616F204D6564696165
:10FFCE003A2000436F7272656E74653A2000546574
:10FFDE006E73616F3A20002056207C200020410A6B
:10FFEE000020560A00204100205600256400256698
:02FFFE00000001
:020000040020DA
:08000000FFFFFFFFFFFFFFFF00
:020000040030CA
:0E000000FF091E1EFF8380FF0FC00FE00F40A0
:00000001FF
