:0400000007EF00F016
:100008007D8209ED00F086EF17F00600FACF86F042
:10001800FBCF87F0E9CF88F0EACF89F0E1CF8AF00B
:10002800E2CF8BF0D9CF8CF0DACF8DF0F3CF8EF012
:10003800F4CF8FF0F6CF90F0F7CF91F0F8CF92F0A1
:10004800F5CF93F0F2BAF2A45FEF08F00001CB51BC
:10005800D8A459D2A5EC17F0D5EC17F0A30E0001DF
:10006800846F550EE82EFED7842FFCD7000E186E2D
:10007800A00E196E400E1A6E91EC16F001C009F030
:1000880002C00AF0CBEC16F009C015F00AC016F051
:100098000BC017F082EC11F015C024F016C025F043
:1000A80017C026F0C00E276E7F0E286E440E296EEC
:1000B800EEEC12F00001CC51030DCE0EF324D96EF4
:1000C800000EF420DA6E24C0DEFF25C0DEFF26C055
:1000D800DEFF0001CC51030DCE0EF324D96E000EC5
:1000E800F420DA6EDECF33F0DECF34F0DDCF35F03A
:1000F8003CEC17F033C039F034C03AF035C03BF06F
:10010800C00E276E7F0E286E440E296E000E186EE4
:10011800A00E196E400E1A6E73EC16F001C009F0AD
:1001280002C00AF0CBEC16F009C015F00AC016F0B0
:100138000BC017F082EC11F015C024F016C025F0A2
:1001480017C026F0EEEC12F024C036F025C037F0C8
:1001580026C038F07FEC0FF036C0ABF037C0ACF0FB
:1001680038C0ADF0ABC024F0ACC025F0ADC026F06F
:10017800A40E276EF00E286E3E0E296EEEEC12F0DD
:100188000001CC51030DB70EF324D96E000EF420F4
:10019800DA6E24C0DEFF25C0DEFF26C0DEFF210E9A
:1001A800796EFC0E7A6EA1EC14F0010E0001CC25DC
:1001B8006C6E6D6A000E6D224EEC17F00001846FB4
:1001C800856B84C079F085C07AF0A1EC14F0E70E55
:1001D800796EFF0E7A6EA1EC14F0DC0E796EFF0ECC
:1001E8007A6EA1EC14F00001CC51030DCE0EF3246D
:1001F800D96E000EF420DA6EDECF6CF0DECF6DF033
:10020800DDCF6EF02AEC17F00001846F856B84C097
:1002180079F085C07AF0A1EC14F0E50E796EFF0E46
:100228007A6EA1EC14F0D10E796EFF0E7A6EA1EC05
:1002380014F00001CC51030DB70EF324D96E000E53
:10024800F420DA6EDECF6CF0DECF6DF0DDCF6EF02D
:100258002AEC17F00001846F856B84C079F085C0A3
:100268007AF0A1EC14F0F30E796EFF0E7A6EA1EC21
:1002780014F00001CC2B050E0001CC19D8A45AEFBC
:1002880008F0000E0001CD6F000E0001CC6FD4C045
:1002980039F0D5C03AF0D6C03BF0D1C036F0D2C064
:1002A80037F0D3C038F07FEC0FF036C0AEF037C06F
:1002B800AFF038C0B0F0D7C039F0D8C03AF0D9C0E4
:1002C8003BF0AEC036F0AFC037F0B0C038F07FECCE
:1002D8000FF036C0B1F037C0B2F038C0B3F0DAC0B2
:1002E80039F0DBC03AF0DCC03BF0B1C036F0B2C048
:1002F80037F0B3C038F07FEC0FF036C0B4F037C039
:10030800B5F038C0B6F0CEC039F0CFC03AF0D0C0A2
:100318003BF0B4C036F0B5C037F0B6C038F07FEC6B
:100328000FF036C024F037C025F038C026F0000E94
:10033800276EA00E286E400E296EEEEC12F024C037
:1003480097F025C098F026C099F0BDC039F0BEC01E
:100358003AF0BFC03BF0BAC036F0BBC037F0BCC003
:1003680038F07FEC0FF036C0AEF037C0AFF038C0D1
:10037800B0F0C0C039F0C1C03AF0C2C03BF0AEC066
:1003880036F0AFC037F0B0C038F07FEC0FF036C0B1
:10039800B1F037C0B2F038C0B3F0C3C039F0C4C050
:1003A8003AF0C5C03BF0B1C036F0B2C037F0B3C0C8
:1003B80038F07FEC0FF036C0B4F037C0B5F038C075
:1003C800B6F0B7C039F0B8C03AF0B9C03BF0B4C025
:1003D80036F0B5C037F0B6C038F07FEC0FF036C055
:1003E80024F037C025F038C026F0000E276EA00E86
:1003F800286E400E296EEEEC12F024C09AF025C04B
:100408009BF026C09CF0C10E796EFF0E7A6EA1ECAF
:1004180014F097C06CF098C06DF099C06EF02AEC9B
:1004280017F00001846F856B84C079F085C07AF07D
:10043800A1EC14F0F60E796EFF0E7A6EA1EC14F0B2
:100448008E0E796EFF0E7A6EA1EC14F09AC06CF0E5
:100458009BC06DF09CC06EF02AEC17F00001846F11
:10046800856B84C079F085C07AF0A1EC14F0F30EA6
:10047800796EFF0E7A6EA1EC14F097C015F098C053
:1004880016F099C017F0000E186E000E196E400E87
:100498001A6E59EC14F0D8A021D09AC015F09BC060
:1004A80016F09CC017F0CD0E186E4C0E196E3E0E4D
:1004B8001A6E59EC14F0D8A011D0010E0001C66FC5
:1004C8005E0E796EFF0E7A6EA1EC14F08B0E796ECB
:1004D800FE0E7A6EA1EC14F0010E11D0000E000190
:1004E800C66F440E796EFF0E7A6EA1EC14F0510EB1
:1004F800796EFD0E7A6EA1EC14F0F7EF07F00001AB
:10050800CB6F5AEF08F00001CB05D8A4A6D2A5EC12
:1005180017F0D5EC17F00001CC2B080E0001CC1910
:10052800D8B415D0100E0001CC19D8B410D0180EBC
:100538000001CC19D8B40BD0200E0001CC19D8B4C6
:1005480006D0280E0001CC19D8A45AEF08F0000EE6
:10055800186EA00E196E400E1A6E91EC16F001C0BE
:1005680009F002C00AF0CBEC16F009C015F00AC079
:1005780016F00BC017F082EC11F015C024F016C06D
:1005880025F017C026F0C00E276E7F0E286E440E89
:10059800296EEEEC12F00001CD51030DCE0EF324BE
:1005A800D96E000EF420DA6E24C0DEFF25C0DEFF0F
:1005B80026C0DEFF0001CD51030DCE0EF324D96E07
:1005C800000EF420DA6EDECF33F0DECF34F0DDCF6C
:1005D80035F03CEC17F033C039F034C03AF035C090
:1005E8003BF0C00E276E7F0E286E440E296E000E5B
:1005F800186EA00E196E400E1A6E73EC16F001C03C
:1006080009F002C00AF0CBEC16F009C015F00AC0D8
:1006180016F00BC017F082EC11F015C024F016C0CC
:1006280025F017C026F0EEEC12F024C036F025C0F5
:1006380037F026C038F07FEC0FF036C0ABF037C08B
:10064800ACF038C0ADF0ABC024F0ACC025F0ADC004
:1006580026F0A40E276EF00E286E3E0E296EEEECE4
:1006680012F00001CD51030DB70EF324D96E000E20
:10067800F420DA6E24C0DEFF25C0DEFF26C0DEFFD0
:10068800210E796EFC0E7A6EA1EC14F0010E0001B9
:10069800CD256C6E6D6A000E6D224EEC17F00001D0
:1006A800846F856B84C079F085C07AF0A1EC14F072
:1006B800E70E796EFF0E7A6EA1EC14F0DC0E796EFF
:1006C800FF0E7A6EA1EC14F00001CD51030DCE0E91
:1006D800F324D96E000EF420DA6EDECF6CF0DECF94
:1006E8006DF0DDCF6EF02AEC17F00001846F856B9A
:1006F80084C079F085C07AF0A1EC14F0E50E796E2B
:10070800FF0E7A6EA1EC14F0D10E796EFF0E7A6EA0
:10071800A1EC14F00001CD51030DB70EF324D96EEE
:10072800000EF420DA6EDECF6CF0DECF6DF0DDCF98
:100738006EF02AEC17F00001846F856B84C079F0A5
:1007480085C07AF0A1EC14F0F30E796EFF0E7A6E84
:10075800A1EC14F00001CD2B280E0001CC19D8A46F
:100768005AEF08F0000E0001CD6F000E0001CC6FAB
:10077800D4C039F0D5C03AF0D6C03BF0D1C036F07D
:10078800D2C037F0D3C038F07FEC0FF036C0AEF0EF
:1007980037C0AFF038C0B0F0D7C039F0D8C03AF0A1
:1007A800D9C03BF0AEC036F0AFC037F0B0C038F0BB
:1007B8007FEC0FF036C0B1F037C0B2F038C0B3F0FC
:1007C800DAC039F0DBC03AF0DCC03BF0B1C036F03B
:1007D800B2C037F0B3C038F07FEC0FF036C0B4F0D9
:1007E80037C0B5F038C0B6F0CEC039F0CFC03AF057
:1007F800D0C03BF0B4C036F0B5C037F0B6C038F062
:100808007FEC0FF036C024F037C025F038C026F052
:10081800000E276EA00E286E400E296EEEEC12F028
:1008280024C0A2F025C0A3F026C0A4F0B10E796EB2
:10083800FF0E7A6EA1EC14F0A2C06CF0A3C06DF0AC
:10084800A4C06EF02AEC17F00001846F856B84C099
:1008580079F085C07AF0A1EC14F0EF0E796EFF0EF6
:100868007A6EA1EC14F0A2C015F0A3C016F0A4C0D3
:1008780017F0CD0E186E4C0E196E400E1A6E59EC0C
:1008880014F0D8A01AD09A0E156E890E166E400E66
:10089800176EA2C018F0A3C019F0A4C01AF059EC42
:1008A80014F0D8A00AD0010E0001C76F660E796E49
:1008B800FE0E7A6EA1EC14F009D0000E0001C76F8D
:1008C8001A0E796EFE0E7A6EA1EC14F0BDC039F0E6
:1008D800BEC03AF0BFC03BF0BAC036F0BBC037F07C
:1008E800BCC038F07FEC0FF036C0AEF037C0AFF0C8
:1008F80038C0B0F0C0C039F0C1C03AF0C2C03BF057
:10090800AEC036F0AFC037F0B0C038F07FEC0FF0B3
:1009180036C0B1F037C0B2F038C0B3F0C3C039F058
:10092800C4C03AF0C5C03BF0B1C036F0B2C037F031
:10093800B3C038F07FEC0FF036C0B4F037C0B5F074
:1009480038C0B6F0B7C039F0B8C03AF0B9C03BF01B
:10095800B4C036F0B5C037F0B6C038F07FEC0FF051
:1009680036C024F037C025F038C026F0000E276EB8
:10097800A00E286E400E296EEEEC12F024C0A5F0F1
:1009880025C0A6F026C0A7F0A00E796EFF0E7A6EDD
:10099800A1EC14F0A5C06CF0A6C06DF0A7C06EF075
:1009A8002AEC17F00001846F856B84C079F085C04C
:1009B8007AF0A1EC14F0EB0E796EFF0E7A6EA1ECD2
:1009C80014F0A5C015F0A6C016F0A7C017F0CD0EFC
:1009D800186E4C0E196E3E0E1A6E59EC14F0D8A013
:1009E8001AD0330E156EB30E166E3E0E176EA5C0D6
:1009F80018F0A6C019F0A7C01AF059EC14F0D8A046
:100A08000AD0010E0001C86FF30E796EFD0E7A6EE2
:100A1800A1EC14F009D0000E0001C86FCB0E796E5E
:100A2800FD0E7A6EA1EC14F00001C705D8A40ED013
:100A38000001C805D8A40AD0020E0001CB6F400EF1
:100A4800796EFE0E7A6EA1EC14F030D3D10E796E69
:100A5800FC0E7A6EA1EC14F0C6D2020E0001CB197E
:100A6800D8A4C4D2AFEC17F0CFEC17F00001CC2B10
:100A7800000E186EA00E196E400E1A6E91EC16F04C
:100A880001C009F002C00AF0CBEC16F009C015F05D
:100A98000AC016F00BC017F082EC11F015C024F054
:100AA80016C025F017C026F0C00E276E7F0E286EE0
:100AB800440E296EEEEC12F00001CD51030DCE0E5E
:100AC800F324D96E000EF420DA6E24C0DEFF25C0B0
:100AD800DEFF26C0DEFF0001CD51030DCE0EF3244C
:100AE800D96E000EF420DA6EDECF39F0DECF3AF0A0
:100AF800DDCF3BF0C00E276E7F0E286E440E296EA8
:100B0800000E186EA00E196E400E1A6E73EC16F0D9
:100B180001C009F002C00AF0CBEC16F009C015F0CC
:100B28000AC016F00BC017F082EC11F015C024F0C3
:100B380016C025F017C026F0EEEC12F024C033F0F2
:100B480025C034F026C035F03CEC17F033C036F041
:100B580034C037F035C038F07FEC0FF036C0ABF05A
:100B680037C0ACF038C0ADF0ABC024F0ACC025F055
:100B7800ADC026F0A40E276EF00E286E3E0E296E2C
:100B8800EEEC12F00001CD51030DB70EF324D96E2F
:100B9800000EF420DA6E24C0DEFF25C0DEFF26C07A
:100BA800DEFFDD0E796EFB0E7A6EA1EC14F0010EFD
:100BB8000001CD256C6E6D6A000E6D224EEC17F0AB
:100BC8000001846F856B84C079F085C07AF0A1EC50
:100BD80014F0E70E796EFF0E7A6EA1EC14F0DC0EBD
:100BE800796EFF0E7A6EA1EC14F00001CD51030D61
:100BF800CE0EF324D96E000EF420DA6EDECF6CF040
:100C0800DECF6DF0DDCF6EF02AEC17F00001846FB7
:100C1800856B84C079F085C07AF0A1EC14F0E50EFC
:100C2800796EFF0E7A6EA1EC14F0D10E796EFF0E7C
:100C38007A6EA1EC14F00001CD51030DB70EF32428
:100C4800D96E000EF420DA6EDECF6CF0DECF6DF0D8
:100C5800DDCF6EF02AEC17F00001846F856B84C03D
:100C680079F085C07AF0A1EC14F0F30E796EFF0EDE
:100C78007A6EA1EC14F00001CD2B050E0001CC1901
:100C8800D8A414D2000E0001CD6F000E0001CC6F65
:100C9800D4C039F0D5C03AF0D6C03BF0D1C036F058
:100CA800D2C037F0D3C038F07FEC0FF036C0AEF0CA
:100CB80037C0AFF038C0B0F0D7C039F0D8C03AF07C
:100CC800D9C03BF0AEC036F0AFC037F0B0C038F096
:100CD8007FEC0FF036C0B1F037C0B2F038C0B3F0D7
:100CE800DAC039F0DBC03AF0DCC03BF0B1C036F016
:100CF800B2C037F0B3C038F07FEC0FF036C0B4F0B4
:100D080037C0B5F038C0B6F0CEC039F0CFC03AF031
:100D1800D0C03BF0B4C036F0B5C037F0B6C038F03C
:100D28007FEC0FF036C024F037C025F038C026F02D
:100D3800000E276EA00E286E400E296EEEEC12F003
:100D480024C09DF025C09EF026C09FF0CE0E1E6EDA
:100D5800000E1F6E000E216E050E206E76EC12F04E
:100D68001EC0A0F01FC0A1F0B10E796EFF0E7A6E02
:100D7800A1EC14F09DC06CF09EC06DF09FC06EF0A9
:100D88002AEC17F00001846F856B84C079F085C068
:100D98007AF0A1EC14F0F60E796EFF0E7A6EA1ECE3
:100DA80014F0770E796EFF0E7A6EA1EC14F0A0C0E5
:100DB8000FF0A1C010F0000E126E030E116E17ECAA
:100DC80017F0CE0E0F24D96E000E1020DA6EDECF8B
:100DD80094F0DECF95F0DDCF96F094C06CF095C01E
:100DE8006DF096C06EF02AEC17F00001846F856BE9
:100DF80084C079F085C07AF0A1EC14F0EF0E796E1A
:100E0800FF0E7A6EA1EC14F09DC015F09EC016F08E
:100E18009FC017F0000E186E400E196E400E1A6E25
:100E280059EC14F0D8A028D0A0C00FF0A1C010F041
:100E3800000E126E030E116E17EC17F0CE0E0F2473
:100E4800D96E000E1020DA6EDECF15F0DECF16F068
:100E5800DDCF17F0CD0E186E2C0E196E400E1A6EDF
:100E680059EC14F0D8A008D0A30E796EFD0E7A6E56
:100E7800A1EC14F0010E07D07A0E796EFD0E7A6E91
:100E8800A1EC14F0000E0001C96FBDC039F0BEC05E
:100E98003AF0BFC03BF0BAC036F0BBC037F0BCC0B8
:100EA80038F07FEC0FF036C0AEF037C0AFF038C086
:100EB800B0F0C0C039F0C1C03AF0C2C03BF0AEC01B
:100EC80036F0AFC037F0B0C038F07FEC0FF036C066
:100ED800B1F037C0B2F038C0B3F0C3C039F0C4C005
:100EE8003AF0C5C03BF0B1C036F0B2C037F0B3C07D
:100EF80038F07FEC0FF036C0B4F037C0B5F038C02A
:100F0800B6F0B7C039F0B8C03AF0B9C03BF0B4C0D9
:100F180036F0B5C037F0B6C038F07FEC0FF036C009
:100F280024F037C025F038C026F0000E276EA00E3A
:100F3800286E400E296EEEEC12F024C0A8F025C0F1
:100F4800A9F026C0AAF0A00E796EFF0E7A6EA1EC69
:100F580014F0A8C06CF0A9C06DF0AAC06EF02AEC1D
:100F680017F00001846F856B84C079F085C07AF032
:100F7800A1EC14F0EB0E796EFF0E7A6EA1EC14F072
:100F8800A8C015F0A9C016F0AAC017F0CD0E186EAB
:100F98004C0E196E3D0E1A6E59EC14F0D8A01AD0EA
:100FA8009A0E156E190E166E3E0E176EA8C018F022
:100FB800A9C019F0AAC01AF059EC14F0D8A00AD0A8
:100FC800010E0001CA6F270E796EFD0E7A6EA1EC34
:100FD80014F009D0000E0001CA6FFC0E796EFC0EE9
:100FE8007A6EA1EC14F0030E83EF02F0030E0001F9
:100FF800CB19D8A45BD0E4EC17F0AFEC17F0A5EC54
:1010080017F0000E0001CB6F0001C751C6C084F075
:101018000001856B00018427000E85230001C8515B
:1010280000018427000E85230001C951000184278F
:10103800000E85230001CA5100018427000E852374
:10104800050E0001841900018511D8A418D0280EB6
:10105800796EFF0E7A6EA1EC14F00B0E796EFF0E0E
:101068007A6EA1EC14F0650E796EFC0E7A6EA1EC26
:1010780014F08188819A819CAFEC16F017D0EE0E9F
:10108800796EFE0E7A6EA1EC14F00B0E796EFF0EDF
:101098007A6EA1EC14F0650E796EFC0E7A6EA1ECF6
:1010A80014F08198819A818C6CEC17F0DB0ED66E67
:1010B8000B0ED76EF29493C0F5FF92C0F8FF91C063
:1010C800F7FF90C0F6FF8FC0F4FF8EC0F3FF8DC00E
:1010D800DAFF8CC0D9FF8BC0E2FF8AC0E1FF89C06C
:1010E800EAFF88C0E9FF87C0FBFF86C0FAFF7D9250
:1010F80011004C0E586E000E596E98D3250E6B18C1
:10110800D8B409D048C0D9FF49C0DAFF6BC0DFFFA7
:10111800484A492A8BD3000E5B6E000E5A6E02D0E5
:101128005B8417D04AC0F6FF4BC0F7FF4A4A4B2AE8
:10113800F86A0800F5CF6BF06B50000AD8B483D377
:10114800640AD8B406D0020AD8B4EAD70F0AD8A4D9
:101158006DD3070E5B14D8B4C5D2000E5D6E060EB3
:101168005C6E58C0D9FF59C0DAFFDECF68F0DECF19
:1011780069F0DDCF6AF0030E5826000E59226AAED8
:1011880010D068C033F069C034F06AC035F03CEC68
:1011980017F033C068F034C069F035C06AF0030E48
:1011A8005A12000E636E000E626E685069106A1063
:1011B800D8B483D0820E4F6EFF0E506E68C051F0C7
:1011C80069C052F06AC053F06BC054F0100E05D0DD
:1011D800D8905432533252325132E82EF9D7515006
:1011E8004F24626E000E5020636E6206D8A063061C
:1011F80062C00FF063C010F0000E126E030E116E85
:1012080017EC17F00FC062F010C063F062C007F06F
:1012180063C008F0000E0A6E0A0E096EE3EC14F0C3
:1012280007C062F008C063F063AE03D06206D8A0BE
:101238006306625000082EEC0CF024C064F025C050
:1012480065F026C066F064C015F065C016F066C08B
:1012580017F068C018F069C019F06AC01AF082EC7B
:1012680011F015C064F016C065F017C066F064C0D0
:1012780015F065C016F066C017F0000E186E800EE7
:10128800196E3F0E1A6E59EC14F0D8B004D06206ED
:10129800D8A0630612D064C015F065C016F066C009
:1012A80017F0000E186E200E196E410E1A6E59ECCA
:1012B80014F0D8A002D0624A632A5DBE06D05D5001
:1012C8001BE10D0E5C5CD8B017D068C036F069C061
:1012D80037F06AC038F05C504AEC0EF024C039F0A0
:1012E80025C03AF026C03BF07FEC0FF036C068F01E
:1012F80037C069F038C06AF063BE06D063501EE19B
:101308000A0E625CD8B01AD0685069106A10D8B456
:1013180051D068C024F069C025F06AC026F0FCEC02
:1013280011F02450251026102710D8B463BE42D0DF
:10133800635004E1020E625CD8A03CD064C015F092
:1013480065C016F066C017F0700E186E890E196E1B
:10135800400E1A6E59EC14F0D8B002D0F70E01D036
:10136800F80E6226FF0E632262502EEC0CF024C0A9
:1013780064F025C065F026C066F068C001F069C059
:1013880002F06AC003F064C004F065C005F066C0EE
:1013980006F055EC10F001C05EF002C05FF003C02B
:1013A80060F004C061F0000E686E000E696E000EF9
:1013B8006A6E32D068C024F069C025F06AC026F091
:1013C800FCEC11F024C05EF025C05FF026C060F090
:1013D80027C061F068C042F069C043F06AC044F0B9
:1013E8005EC009F05FC00AF060C00BF061C00CF08D
:1013F800FFEC15F009C045F00AC046F00BC047F0F5
:1014080053EC16F042C068F043C069F044C06AF07B
:10141800000E636E000E626E010E6B6E0A0E6B1884
:10142800D8B41BD06B50040D670EF324F66EFB0E78
:10143800F420F76EF86A000EF8220900F5505E5C99
:101448000900F5505F580900F55060580900F5503B
:101458006158D8A002D06B2AE1D7030E5A144F6EF8
:10146800000E5B14506E4F505010D8B454D048C082
:10147800D9FF49C0DAFF2D0E4CD0484A492A4BD033
:101488005EC001F05FC002F060C003F061C004F00C
:101498006B50040D670EF324F66EFB0EF420F76E06
:1014A800F86A000EF8220900F5CF05F00900F5CF1B
:1014B80006F00900F5CF07F00A00F5CF08F025EC93
:1014C80015F001C064F002C065F003C066F004C006
:1014D80067F064C00EF065C00FF066C010F067C01A
:1014E80011F00A0E126E000E136E000E146E000E2E
:1014F800156E9EEC15F00EC064F00FC065F010C0BC
:1015080066F011C067F06450300F48C0D9FF49C079
:10151800DAFFDF6EB2D76B066B28D8B40CD0B0D721
:1015280048C0D9FF49C0DAFF300EDF6E484A492A61
:101538006206D8A0630663BE05D06350F1E1620479
:10154800D8B0EED75DBE09D05D5004E1090E5C5CF1
:10155800D8A003D0080E6B6E02D05CC06BF06B5045
:101568005C5E000E6BBEFF0E5D5A6B50D8B408D09F
:1015780048C0D9FF49C0DAFF2E0EDF6E484A492A13
:101588006B502EEC0CF024C055F025C056F026C048
:1015980057F068C018F069C019F06AC01AF055C051
:1015A80015F056C016F057C017F082EC11F015C0B0
:1015B80024F016C025F017C026F0FCEC11F024C06A
:1015C8005EF025C05FF026C060F027C061F075D0DE
:1015D8005EC001F05FC002F060C003F061C004F0BB
:1015E8006B50040D670EF324F66EFB0EF420F76EB5
:1015F800F86A000EF8220900F5CF05F00900F5CFCA
:1016080006F00900F5CF07F00A00F5CF08F025EC41
:1016180015F001C064F002C065F003C066F004C0B4
:1016280067F064C00EF065C00FF066C010F067C0C8
:1016380011F00A0E126E000E136E000E146E000EDC
:10164800156E9EEC15F00EC064F00FC065F010C06A
:1016580066F011C067F06450300F48C0D9FF49C028
:10166800DAFFDF6E484A492A5EC00EF05FC00FF00D
:1016780060C010F061C011F06B50040D670EF324C8
:10168800F66EFB0EF420F76EF86A000EF8220900D9
:10169800F5CF12F00900F5CF13F00900F5CF14F0DB
:1016A8000A00F5CF15F09EEC15F00EC05EF00FC0E5
:1016B8005FF010C060F011C061F06B066B28D8B401
:1016C8000CD086D748C0D9FF49C0DAFF300EDF6E8C
:1016D800484A492A5C06D8A05D065C505D10D8B41B
:1016E800A5D0F0D758C0D9FF59C0DAFFDECF5EF0D9
:1016F800DDCF5FF0000E5FBEFF0E606E616E020E02
:101708005826000E592261AE0AD0030E5A12611EE5
:10171800601E5F1E5E6C000E5F2260226122010E59
:101728006B6E0A0E6B18D8B41BD06B50040D670E85
:10173800F324F66EFB0EF420F76EF86A000EF8221A
:101748000900F5505E5C0900F5505F580900F55036
:1017580060580900F5506158D8A002D06B2AE1D72B
:10176800030E5A144F6E000E5B14506E4F505010FB
:10177800D8B408D048C0D9FF49C0DAFF2D0EDF6EB3
:10178800484A492A6B505C6E5D6A5CBE5D0646D06D
:101798005CC04FF05DC050F0D8904F365036D890AE
:1017A8004F365036670E4F24F66EFB0E5020F76EFC
:1017B800F86A000EF8220900F5CF05F00900F5CF08
:1017C80006F00900F5CF07F00A00F5CF08F05EC073
:1017D80001F05FC002F060C003F061C004F025ECC6
:1017E80015F001C00EF002C00FF003C010F004C0E5
:1017F80011F00A0E126E000E136E000E146E000E1B
:10180800156E9EEC15F00E50300F6B6E48C0D9FF68
:1018180049C0DAFF6BC0DFFF484A492A5C06D8A0F6
:101828005D065C28B5E15D28D8A4B2D74AC0F6FFAA
:101838004BC0F7FF4A4A4B2AF86A0800F5CF6BF00D
:101848006B50D8A45BD448C0D9FF49C0DAFF000E5A
:10185800DF6E12002A6E2AAE0DD12A6C2A50800A39
:10186800120FD8A09AD0000E126E030E116E000E41
:101878000A6E0A0E096E000E046E640E036E2A507C
:10188800016E026A01BE020666EC15F001C007F09F
:1018980002C008F0E3EC14F0090E07240F6E000EE6
:1018A8000820106E17EC17F0B60E0F24F66EFB0E1C
:1018B8001020F76EF86A000EF8220900F5CF18F02C
:1018C8000900F5CF19F00A00F5CF1AF0000E0A6EDC
:1018D800640E096E2A50076E086A07BE0806E3EC14
:1018E80014F0120E07240F6E000E0820106E000E62
:1018F800126E030E116E17EC17F0B60E0F24F66E6B
:10190800FB0E1020F76EF86A000EF8220900F5CFDA
:1019180015F00900F5CF16F00A00F5CF17F082ECA4
:1019280011F015C027F016C028F017C029F027C0FD
:1019380015F028C016F029C017F0000E126E030E1D
:10194800116E000E046E0A0E036E2A50016E026AB2
:1019580001BE020666EC15F001C00FF002C010F0DF
:1019680017EC17F0B60E0F24F66EFB0E1020F76E6C
:10197800F86A000EF8220900F5CF18F00900F5CF33
:1019880019F00A00F5CF1AF082EC11F015C024F016
:1019980016C025F017C026F012002A50800A750FCD
:1019A800D8A053D0000E0A6E0A0E096E2A50076E90
:1019B800086A07BE0806E3EC14F0090E07240F6E48
:1019C800000E0820106E000E126E030E116E17EC3A
:1019D80017F0B60E0F24F66EFB0E1020F76EF86A9D
:1019E800000EF8220900F5CF15F00900F5CF16F022
:1019F8000A00F5CF17F0000E126E030E116E000EDE
:101A0800046E0A0E036E2A50016E026A01BE0206B7
:101A180066EC15F001C00FF002C010F017EC17F0DB
:101A2800B60E0F24F66EFB0E1020F76EF86A000E45
:101A3800F8220900F5CF18F00900F5CF19F00A00CF
:101A4800F5CF1AF082EC11F0A1D72A50030DB60E8B
:101A5800F324F66EFB0EF420F76EF86A000EF822F7
:101A68000900F5CF24F00900F5CF25F00A00F5CFDD
:101A780026F012002A50800A120FD8A09AD0000E21
:101A8800126E030E116E000E0A6E0A0E096E000E1B
:101A9800046E640E036E2A50016E026A01BE0206CD
:101AA80066EC15F001C007F002C008F0E3EC14F092
:101AB800090E07240F6E000E0820106E17EC17F0A1
:101AC8008F0E0F24F66EFB0E1020F76EF86A000ECC
:101AD800F8220900F5CF18F00900F5CF19F00A002F
:101AE800F5CF1AF0000E0A6E640E096E2A50076EC2
:101AF800086A07BE0806E3EC14F0120E07240F6EFE
:101B0800000E0820106E000E126E030E116E17ECF8
:101B180017F08F0E0F24F66EFB0E1020F76EF86A82
:101B2800000EF8220900F5CF15F00900F5CF16F0E0
:101B38000A00F5CF17F082EC11F015C027F016C097
:101B480028F017C029F027C015F028C016F029C0C2
:101B580017F0000E126E030E116E000E046E0A0EC0
:101B6800036E2A50016E026A01BE020666EC15F089
:101B780001C00FF002C010F017EC17F08F0E0F2401
:101B8800F66EFB0E1020F76EF86A000EF8220900B8
:101B9800F5CF18F00900F5CF19F00A00F5CF1AF0C3
:101BA80082EC11F015C024F016C025F017C026F0FD
:101BB80012002A50800A750FD8A053D0000E0A6E62
:101BC8000A0E096E2A50076E086A07BE0806E3EC7B
:101BD80014F0090E07240F6E000E0820106E000E78
:101BE800126E030E116E17EC17F08F0E0F24F66E9F
:101BF800FB0E1020F76EF86A000EF8220900F5CFE8
:101C080015F00900F5CF16F00A00F5CF17F0000E11
:101C1800126E030E116E000E046E0A0E036E2A5029
:101C2800016E026A01BE020666EC15F001C00FF0F3
:101C380002C010F017EC17F08F0E0F24F66EFB0E93
:101C48001020F76EF86A000EF8220900F5CF18F098
:101C58000900F5CF19F00A00F5CF1AF082EC11F05F
:101C6800A1D72A50030D8F0EF324F66EFB0EF42035
:101C7800F76EF86A000EF8220900F5CF24F0090083
:101C8800F5CF25F00A00F5CF26F012002D6E6D0E67
:101C98002D64A8D0000E126E030E116E000E0A6E8F
:101CA8000A0E096E000E046E640E036E2DC001F05C
:101CB800026A66EC15F001C007F002C008F0E3EC18
:101CC80014F0090E07240F6E000E0820106E17EC92
:101CD80017F0B60E0F24F66EFB0E1020F76EF86A9A
:101CE800000EF8220900F5CF18F00900F5CF19F019
:101CF8000A00F5CF1AF0000E0A6E640E096E2DC0A8
:101D080007F0086AE3EC14F0120E07240F6E000EB9
:101D18000820106E000E126E030E116E17EC17F0ED
:101D2800B60E0F24F66EFB0E1020F76EF86A000E42
:101D3800F8220900F5CF15F00900F5CF16F00A00D2
:101D4800F5CF17F082EC11F015C02AF016C02BF071
:101D580017C02CF0000E126E030E116E000E046EEA
:101D68000A0E036E2DC001F0026A66EC15F001C080
:101D78000FF002C010F017EC17F0B60E0F24F66E35
:101D8800FB0E1020F76EF86A000EF8220900F5CF56
:101D980018F00900F5CF19F00A00F5CF1AF02AC09B
:101DA80015F02BC016F02CC017F082EC11F015C0FE
:101DB80027F016C028F017C029F027C015F028C052
:101DC80016F029C017F0000E186E000E196E3F0E9F
:101DD8001A6E82EC11F015C024F016C025F017C059
:101DE80026F012000A0E2D6463D0000E126E030E48
:101DF800116E000E046E0A0E036E2DC001F0026A09
:101E080066EC15F001C00FF002C010F017EC17F0E7
:101E1800B60E0F24F66EFB0E1020F76EF86A000E51
:101E2800F8220900F5CF18F00900F5CF19F00A00DB
:101E3800F5CF1AF0000E0A6E0A0E096E2DC007F0D3
:101E4800086AE3EC14F0090E07240F6E000E082050
:101E5800106E000E126E030E116E17EC17F0B60E10
:101E68000F24F66EFB0E1020F76EF86A000EF822AB
:101E78000900F5CF15F00900F5CF16F00A00F5CFE7
:101E880017F082EC11F015C02AF016C02BF017C01D
:101E98002CF02AC015F02BC016F02CC017F0000E3D
:101EA800186E000E196E3F0E1A6E82EC11F093D761
:101EB8002D50030DB60EF324F66EFB0EF420F76ECC
:101EC800F86A000EF8220900F5CF15F00900F5CFE1
:101ED80016F00A00F5CF17F0000E186E000E196EF6
:101EE8003F0E1A6E82EC11F015C024F016C025F0D2
:101EF80017C026F0120038C03CF03D6A3E6A3734FD
:101F08003C3601E33D803C50416E3BC03CF03D6AAD
:101F18003E6A3A343C3601E33D803C50406E4150C5
:101F2800D8B40BD04050415CD8B00ED04150000816
:101F380040243C6E180E3C6407D039C036F03AC0D5
:101F480037F03BC038F012004050D8B40BD04150A5
:101F5800405CD8B00ED04050000841243C6E180EAA
:101F68003C6407D036C036F037C037F038C038F098
:101F78001200060E3F6E38BE3F8E3BBE3F8C378E3A
:101F8800FF0E3616FF0E3716000E38163A8EFF0E65
:101F98003916FF0E3A16000E3B164050415CD8B079
:101FA8001BD0D89039363A363B3640064150401857
:101FB800D8B40DD03F063FC03CF0070E3C16D8B44D
:101FC80006D0EFD7D890383237323632412A4050CF
:101FD8004118D8B41FD0F6D74150405CD8B01AD0B9
:101FE800D890363637363836410641504018D8B47E
:101FF8000DD03F063FC03CF0070E3C16D8B406D0C3
:10200800EFD7D8903B323A323932402A4050411803
:10201800D8A4F7D73FAE0CD0FF0E361AFF0E371AEA
:10202800FF0E381A010E3626000E3722000E38220F
:102038003FAC0CD0FF0E391AFF0E3A1AFF0E3B1AAE
:10204800010E3926000E3A22000E3B22000E3F6E8A
:102058003650392637503A2238503B223BAE0ED004
:10206800FF0E391AFF0E3A1AFF0E3B1A010E3926D7
:10207800000E3A22000E3B22010E3F6E39C001F0DD
:102088003AC002F03BC003F041C004F03FC005F085
:10209800BAEC13F001C036F002C037F003C038F0D4
:1020A800120003C007F0086A096A0234073601E320
:1020B800088007500F6E0F50D8A409D0000E016E8B
:1020C800000E026E000E036E000E046E120006C0B3
:1020D80007F0086A096A0534073601E308800750E3
:1020E8000E6E0E50D8A409D0000E016E000E026EBE
:1020F800000E036E000E046E1200028EFF0E011613
:10210800FF0E0216000E0316058EFF0E0416FF0EB4
:102118000516000E0616000E0A6E000E0B6E000E57
:102128000C6E000E0D6E7F0E0F5E0E50980F0F5E38
:10213800180E0E6ED8900A360B360C360D36045033
:10214800015C0550025806500358D8A007D0045027
:10215800015E0550025A0650035A0A80D89001368B
:10216800023603360E2EE6D70FAE16D00F50800A71
:10217800970FD8B009D0000E016E000E026E000E47
:10218800036E000E046E1200D8900D320C320B3222
:102198000A320F3EF9D715D0170E0F640FD0000E74
:1021A800016E000E026E000E036E000E046E120029
:1021B800D8900A360B360C360D360F060F50D8A4B9
:1021C800F7D70AC001F00BC002F00CC003F00DC035
:1021D80004F01200033404340C6E0C50D8A409D057
:1021E800000E016E000E026E000E036E000E046EED
:1021F8001200063407340B6E0B50D8A409D0000E19
:10220800016E000E026E000E036E000E046E1200C8
:10221800038EFF0E0116FF0E0216FF0E0316000EA8
:102228000416068EFF0E0416FF0E0516FF0E061680
:10223800000E0716000E076E000E086E000E096EDF
:10224800000E0A6E7F0E0C5E0B50A00F0C5E200E67
:102258000B6ED8900736083609360A360450015CEA
:10226800055002580650035807500458D8A009D002
:102278000450015E0550025A0650035A0750045A8A
:102288000780D89001360236033604360B2EE1D784
:102298000CAE16D00C50800A9F0FD8B009D0000E93
:1022A800016E000E026E000E036E000E046E120028
:1022B800D8900A320932083207320C3EF9D715D0C5
:1022C8001F0E0C640FD0000E016E000E026E000E81
:1022D800036E000E046E1200D890073608360936D1
:1022E8000A360C060C50D8A4F7D707C001F008C06E
:1022F80002F009C003F00AC004F0120017C01BF076
:102308001C6A1D6A16341B3601E31C801B501E6EA6
:102318001E50D8A407D0000E156E000E166E000EC3
:10232800176E12001AC01BF01C6A1D6A19341B367E
:1023380001E31C801B50236E2350D8A407D0000E45
:10234800156E000E166E000E176E120023507B0FCE
:102358001E2617C023F01A50231A800E2316168E35
:10236800198EFF0E1816FF0E1916000E1A16000EFB
:102378001F6E000E206E000E216E070E226E15A035
:1023880006D018501F26195020221A502122D89002
:10239800173216321532D890183619361A36222EB8
:1023A800EED7090E226E15A006D018501F26195018
:1023B80020221A502122D890173216321532D8907E
:1023C800213220321F32222EEED71FC001F020C04A
:1023D80002F021C003F01EC004F023C005F0BAECDF
:1023E80013F001C015F002C016F003C017F0120078
:1023F80026C028F0296A2A6A2534283601E329806C
:102408002850326E3250D8A409D0000E246E000E27
:10241800256E000E266E000E276E1200170E286E0F
:1024280024C029F025C02AF026C02BF028282C6EBD
:1024380004D0D8902B322A3229322C2EFAD72950A0
:102448002D6E258EFF0E2416FF0E2516000E26165D
:1024580024502E6E25502F6E2650306E316A8E0E07
:10246800325E32AE16D03250800A8F0FD8B009D003
:10247800000E246E000E256E000E266E000E276ECE
:102488001200D890313230322F322E32323EF9D704
:1024980015D0170E32640FD0000E246E000E256E74
:1024A800000E266E000E276E1200D8902E362F369C
:1024B8003036313632063250D8A4F7D72D50D8B43A
:1024C80008D0311E301E2F1E2E6C000E2F223022F7
:1024D80031222EC024F02FC025F030C026F031C0A4
:1024E80027F01200000E276E000E266E000E296ED1
:1024F800000E286E000E236E000E246E000E256E50
:1025080028C00FF029C010F0000E126E030E116ED5
:1025180017EC17F00F501E24D96E10501F20DA6EDA
:10252800DECF23F0DECF24F0DDCF25F028C026F063
:1025380029C027F0000E296E000E286E3CD028C056
:102548000FF029C010F0000E126E030E116E17EC7A
:1025580017F00F501E24D96E10501F20DA6EDECFF0
:1025680015F0DECF16F0DDCF17F023C018F024C029
:1025780019F025C01AF059EC14F0D8B01AD028C0B8
:1025880026F029C027F028C00FF029C010F0000E4F
:10259800126E030E116E17EC17F00F501E24D96E31
:1025A80010501F20DA6EDECF23F0DECF24F0DDCF0F
:1025B80025F0284A292A2050285C2950800A226EB2
:1025C8002150800A2258D8A0BAD726C01EF027C0AA
:1025D8001FF0120026C02AF02B6A2C6A25342A36EE
:1025E80001E32B802A50316E3150D8A407D0000E59
:1025F800246E000E256E000E266E120029C02AF0E9
:102608002B6A2C6A28342A3601E32B802A50326E32
:102618003250D8A407D0000E246E000E256E000E8E
:10262800266E1200000E2E6E000E2F6E000E306EFB
:102638003250890F315E26C032F02950321A800E8E
:102648003216258EFF0E2416FF0E2516000E2616AE
:10265800288EFF0E2716FF0E2816000E2916180EB4
:102668002D6ED8902E362F3630362750245C2850C1
:10267800255829502658D8A007D02750245E28501E
:10268800255A2950265A2E80D890243625362636A3
:102698002D2EE7D72EC001F02FC002F030C003F076
:1026A80031C004F032C005F0BAEC13F001C024F0D8
:1026B80002C025F003C026F01200020E01010F6FC0
:1026C800450E01010E6FA90EE82EFED70E2FFCD77E
:1026D8000F2FFAD700D0E7EC16F002EC17F0B9ECA0
:1026E80017F05EEC17F0DBEC17F09C0E0101066F9B
:1026F800FC0E0101076F11EC14F0680E0101066F62
:10270800FC0E0101076F11EC14F0E2EC17F081B434
:10271800FED7070E01010E6F7D0EE82EFED70E2F95
:10272800FCD781B4F4D781A4FED77AEC17F081984E
:10273800819C818ACF0E0101066FFE0E0101076F91
:1027480011EC14F0AF0E0101066FFE0E0101076FC8
:1027580011EC14F0000E0001CB6F000E0001CC6FDD
:10276800000E0001CD6FE0EC17F0D1D70450D8B4BB
:1027780005D0015002100310D8A40CD0000E016E31
:10278800000E026E000E036E1200042AD890033267
:1027980002320132000E0114066E000E0214076E9A
:1027A800FE0E0314086E065007100810D8B40CD09B
:1027B800ECD7042A010E0126000E0222000E032285
:1027C800D890033202320132000E0114066E000E58
:1027D8000214076EFF0E0314086E06500710081047
:1027E800D8B406D0E6D70406D890013602360336A8
:1027F80002BE03D0020E0460F6D704A0029ED89051
:102808000432045003120550D8A4038E01C001F00D
:1028180002C002F003C003F01200000E01010D6FA8
:10282800000E0C6F06C100F107C101F1D1EC15F0E3
:1028380000C10AF101C10BF1000E01010D6F000E7C
:102848000C6F22D001010C51010106250101086F0E
:1028580001010D51010107210101096F08C1F6FFAE
:1028680009C1F7FF000EF86E0F0EF76403D00800D9
:10287800F55005D0F6CFE9FFF7CFEAFFEF50C2ECED
:1028880017F001010C4B0D2B01010A5101010C5DE0
:1028980001010D51800A0101086F01010B51800AE5
:1028A80001010859D8B01200CDD717AE16D015C0FF
:1028B8001BF016C01CF017C01DF01B1E1C1E1D1E91
:1028C8001B2A000E1C221D22000E1B24156E000E52
:1028D8001C20166E800E1D20176E1AAE16D018C05A
:1028E8001BF019C01CF01AC01DF01B1E1C1E1D1E5B
:1028F8001B2A000E1C221D22000E1B24186E000E1F
:102908001C20196E800E1D201A6E000E151A000E5E
:10291800161A800E171A000E181A000E191A800EB1
:102928001A1A1850155C195016581A501758D8B05A
:1029380002D0D8901200D8801200000E0001836FD8
:10294800000E826F79C001F07AC002F02DEC16F00B
:1029580001C080F002C081F0000E0001836F000EFC
:10296800826F1ED00001825179247B6E0001835151
:102978007A207C6E7BC0F6FF7CC0F7FF000EF86EF5
:102988000F0EF76403D00800F55005D0F6CFE9FF25
:10299800F7CFEAFFEF50C9EC17F00001824B832B09
:1029A800000180510001825D00018351800A7B6E25
:1029B80000018151800A7B58D8B01200D3D7000E8D
:1029C8000C6E0AAE06D0096C0A1ED8B00A2A010E8F
:1029D8000C6E08AE06D0076C081ED8B0082A010E87
:1029E8000C1A000E0E6E000E0D6E09500A10D8B4A7
:1029F8001CD0010E0B6E04D0D89009360A360B2A6B
:102A08000AAEFAD7D8900D360E360950075C0A5030
:102A18000858D8A005D00950075E0A50085A0D80FA
:102A2800D8900A3209320B2EEDD70C50D8B404D006
:102A38000D6C0E1ED8B00E2A0DC007F00EC008F09F
:102A48001200000E096E000E0A6E000E0B6E000ECC
:102A58000C6E0550061007100810D8B42AD0010EC5
:102A68000D6E06D0D89005360636073608360D2A7C
:102A780008AEF8D7D89009360A360B360C3605500A
:102A8800015C065002580750035808500458D8A053
:102A980009D00550015E0650025A0750035A0850E3
:102AA800045A0980D89008320732063205320D2EB2
:102AB800E1D709C001F00AC002F00BC003F00CC056
:102AC80004F01200000E066E02AE06D0016C021E63
:102AD800D8B0022A010E066E04AE04D0036C041EA0
:102AE800D8B0042A03500410D8B418D0010E056ECB
:102AF80004D0D89003360436052A04AEFAD703501A
:102B0800015C04500258D8A004D00350015E045060
:102B1800025AD89004320332052EF1D70650D8B4A1
:102B280004D0016C021ED8B0022A01C001F002C014
:102B380002F012001250131014101510D8B424D03B
:102B4800010E166E06D0D890123613361436153686
:102B5800162A15AEF8D712500E5C13500F581450A1
:102B6800105815501158D8A008D012500E5E1350A6
:102B78000F5A1450105A1550115AD8901532143251
:102B880013321232162EE7D70EC00EF00FC00FF018
:102B980010C010F011C011F01200000E0101056FF5
:102BA800000E046F03D00101044B052B01010451F1
:102BB800010100250101026F0101055101010121F7
:102BC8000101036F02C1F6FF03C1F7FF000EF86EA3
:102BD8000F0EF76403D00800F55005D0F6CFE9FFD3
:102BE800F7CFEAFFEF500009D8A4DDD704C100F100
:102BF80005C101F112008E0E116E06D0D8900C326C
:102C08000B320A320932112A000E09140D6E000E19
:102C18000A140E6E000E0B140F6EFF0E0C14106EBD
:102C28000D500E100F101010D8A4E8D709C001F0ED
:102C38000AC002F00BC003F011C004F0000E056ECC
:102C4800BAEC13F001C009F002C00AF003C00BF09F
:102C58001200000E066E000E056E02D0054A062A06
:102C680005500124036E06500220046E03C0F6FFCF
:102C780004C0F7FF000EF86E0F0EF76403D00800CB
:102C8800F55005D0F6CFE9FFF7CFEAFFEF5000097E
:102C9800D8A4E4D705C001F006C002F012004550E0
:102CA80046104710D8B406D0000E451A000E461A32
:102CB800800E471A42C036F043C037F044C038F09F
:102CC80045C039F046C03AF047C03BF07FEC0FF002
:102CD80036C042F037C043F038C044F01200C2504A
:102CE800C30B0409C26EC280000E066E000E056E8C
:102CF800C2829EACFED7C350C4CF03F0046A03C09F
:102D080004F0036A0310056E0450066E9E9CC29080
:102D180005C001F006C002F01200C294C296C29823
:102D2800C29AC280000E066E000E056EC2829EAC6C
:102D3800FED7C350C4CF03F0046A03C004F0036A8B
:102D48000310056E0450066E9E9CC29005C001F0EB
:102D580006C002F01200000E026E000E026E020E95
:102D6800026401D012008186110E016E3A0EE82E1F
:102D7800FED7012EFCD700D08196110E016E3A0EB7
:102D8800E82EFED7012EFCD700D0022AE8D7000E85
:102D98000C6E0AAE06D0096C0A1ED8B00A2A010EBB
:102DA8000C6E09C001F00AC002F0036A8E0E046EB0
:102DB8000CC005F0BAEC13F001C009F002C00AF02B
:102DC80003C00BF01200C292C290C19AC198C150C0
:102DD800F00B0C09C16EC08EC050C70B0809C06E3D
:102DE800C050F80B0409C06E040E0101006F3D0EBF
:102DF800E82EFED7002FFCD700D01200948E948CBA
:102E0800AC9EAC9CAC8AAC98AC96AC84AB8EAB9CBC
:102E1800AB9AAB88AB96B886190EAF6EF28EF28C71
:102E28009D8A9E9A12000F501102F3CF13F0F4CF2F
:102E380014F00F501202F350142610501102F350E0
:102E4800142613C00FF014C010F012006F0E486E55
:102E5800000E496EFC0E4A6EFF0E4B6E6CC04CF0B5
:102E68006DC04DF06EC04EF07DEC08F06F0E120094
:102E7800335034103510D8B406D0000E331A000E73
:102E8800341A800E351A33C033F034C034F035C0EC
:102E980035F012006E0E486E000E496EF90E4A6E3D
:102EA800FF0E4B6E6CC04CF06DC04DF07DEC08F021
:102EB8006E0E1200D59CD59AD588D596D550F80BAC
:102EC8000109D56EDB0ED66E0B0ED76ED59E12009D
:102ED8008186020E026E450E016EAA0EE82EFED7FE
:102EE800012EFCD7022EFAD7819612008186410E58
:102EF8000101006FEE0EE82EFED7002FFCD700F080
:102F08008196120000EEB7F0260EEE6AE806FDE1A3
:102F18007D907D92000161EF13F08182070E01011F
:102F2800006F7D0EE82EFED7002FFCD7120081809F
:102F3800070E0101006F7D0EE82EFED7002FFCD78B
:102F480012008182070E016E7D0EE82EFED7012E3B
:102F5800FCD700F012008180070E016E7D0EE82E6E
:102F6800FED7012EFCD700F01200040E936E000E5F
:102F7800816E9BEC17F091EC17F012000101006FC5
:102F880000C1ADFFACB21200FDD7016E01C0ADFFAC
:102F9800ACB21200FDD781A002D0819212008182CA
:102FA800120081A202D08190120081801200F28E5C
:102FB800F28CF28AF2941200D58E1200D59E12007D
:042FC800D59E120080
:10FB660000010000000A00000064000000E8030035
:10FB76000010270000A086010040420F00809698E2
:10FB86000000E1F50500CA9A3B00803F00204100D5
:10FB9600C842007A44401C4650C34724744997180B
:10FBA6004BBCBE4C6B6E4E03155079AD60F349717C
:10FBB60000803FCDCC3DD7233C12833AB7D138C61F
:10FBC6002737388635C0D633CC2B32708930E7DB01
:10FBD6002EE53C1E42A20D0A436172726567616D95
:10FBE600656E746F3A204465736162696C6974610D
:10FBF600646F207C20446573636172726567616D12
:10FC0600656E746F3A20486162696C697461646FED
:10FC1600207C2054657374653A20000A4361727231
:10FC26006567616D656E746F3A20486162696C69DB
:10FC36007461646F207C20446573636172726567CA
:10FC4600616D656E746F3A204465736162696C69B3
:10FC56007461646F207C2054657374653A20000AD1
:10FC66000A0A0A2A2A2A205072657373696F6E651A
:10FC7600206F20626F74616F207061726120696EFF
:10FC86006963696172206F7320746573746573218B
:10FC9600202A2A2A0A000A0A0A0A2A2A2A204A693D
:10FCA60067612064652074657374657320646120E0
:10FCB600626174657269612045564F202D20465752
:10FCC6002056322E30202A2A2A0A000A54657374D6
:10FCD6006520646520446573636172726567616D52
:10FCE600656E746F206E616F20486162696C69741D
:10FCF60061646F210A00546573746520646520434E
:10FD06006F7272656E7465206E6F204465736361F1
:10FD160072726567616D656E746F3A204E4F4B0A5D
:10FD260000546573746520646520436F7272656E56
:10FD36007465206E6F2044657363617272656761D6
:10FD46006D656E746F3A204F4B0A000A0A5465734C
:10FD5600746520646520436172726567616D656EC6
:10FD6600746F206E616F20686162696C697461648A
:10FD76006F210A0054657374652064652054656EAE
:10FD860073616F206E6F204465736361727265677D
:10FD9600616D656E746F3A204E4F4B0A0054657361
:10FDA60074652064652054656E73616F206E6F20E4
:10FDB600446573636172726567616D656E746F3AEF
:10FDC600204F4B0A00546573746520646520436FA9
:10FDD6007272656E7465206E6F204361727265671C
:10FDE600616D656E746F3A204E4F4B0A0054657311
:10FDF600746520646520436F7272656E7465206E4B
:10FE06006F20436172726567616D656E746F3A202B
:10FE16004F4B0A0054657374652064652054656E03
:10FE260073616F206E6F20436172726567616D65E5
:10FE36006E746F3A204E4F4B0A000A546573746510
:10FE460020646520446573636172726567616D65E0
:10FE56006E746F20486162696C697461646F210019
:10FE660054657374652064652054656E73616F20F4
:10FE76006E6F20436172726567616D656E746F3A6D
:10FE8600204F4B0A000A0A54657374652064652086
:10FE9600436172726567616D656E746F2068616239
:10FEA600696C697461646F210054657374652064BC
:10FEB6006520506F6C617269646164652048616297
:10FEC600696C697461646F21000A2A2A2A20496EC6
:10FED600696369616E646F207465737465732E2E31
:10FEE6002E202A2A2A0A0A000A2A2A2A20424154AD
:10FEF6004552494120524550524F564144412120D6
:10FF06002A2A2A0A000A2A2A2A2054657374657343
:10FF16002066696E616C697A61646F73202A2A2A89
:10FF26000A000A2A2A2A20424154455249412041C0
:10FF360050524F5641444121202A2A2A0A000A5487
:10FF46006573746520646520506F6C6172696461C5
:10FF560064653A204E4F4B000A54657374652064FD
:10FF66006520706F6C617269646164653A204F4BFD
:10FF7600000A4D656E6F722074656E73616F206D39
:10FF860065646964613A20000A436F7272656E7433
:10FF960065206D656469613A2000436F7272656E13
:10FFA6007465204D656469613A20000A54656E7374
:10FFB600616F204D656469613A20000A54656E736D
:10FFC600616F206D656469613A2000436F727265E6
:10FFD6006E74653A200054656E73616F3A20002096
:10FFE60056207C200020410A0020560A00204100AD
:0AFFF6002056002564002566000077
:020000040020DA
:08000000FFFFFFFFFFFFFFFF00
:020000040030CA
:0E000000FF091E1EFF8380FF0FC00FE00F40A0
:00000001FF
